:020000040800F2
:1000000090230020AD630108F5630108F96301083E
:10001000C9600108FD6301080164010800000000D7
:10002000000000000000000000000000056401085E
:1000300009640108000000000D640108CB6001089C
:100040001164010815640108196401081D640108A0
:100050002164010825640108D760010829640108AA
:100060002D64010831640108356401083964010810
:100070003D640108416401084564010849640108C0
:100080004D6401085164010855640108E1600108EC
:10009000EB600108F5600108596401089B740008D1
:1000A0005D64010861640108FF600108656401087E
:1000B000696401086D6401087164010875640108D0
:1000C0007964010809610108136101087D64010870
:1000D0008164010885640108896401088D64010850
:1000E0009164010895640108996401089D64010800
:1000F0001D6101082B610108A1640108A5640108C4
:1001000039610108A9640108AD640108B1640108FE
:10011000B5640108B9640108BD640108C16401083F
:10012000C5640108C9640108CD640108D1640108EF
:10013000D5640108D9640108DD640108E16401089F
:10014000E5640108E9640108ED64010849610108FA
:10015000F1640108F5640108F964010853610108BC
:10016000FD640108016501080565010809650108CC
:100170000D65010811650108156501080000000002
:10018000196501081D65010821650108256501083B
:10019000296501082D6501083165010835650108EB
:1001A0005D61010867610108716101083965010835
:1001B0003D6501084165010845650108496501087B
:1001C0004D650108516501080000000000000000B5
:1001D000000000000000000000000000000000001F
:1001E00000000000C0C0C0C0C0C0C0C0C0C0C000CF
:1001F00000C0000000000000000000D8D090900077
:1002000000000000000000000000000000000000EE
:10021000000000000000000880188018807FE07F48
:10022000C03100310033002300FF806200620046CD
:100230000046000000000000000000000000000870
:1002400000080008003F0069804800480078003836
:10025000000C000F0009800880088089807B803EA8
:100260000008000800080000000000000000000076
:1002700000000000000000007C0600660C00C20CBC
:1002800000C218006630003C300000600000C180F1
:1002900000C7C0018460030420030C200606E004AC
:1002A00003C000000000000000000000000000008B
:1002B00000000000000000003C00660062006600D4
:1002C0003C0038007800CC008600824083C0C380A8
:1002D00066803CC00000000000000000000000003C
:1002E0000040C0C0800000000000000000000000CE
:1002F00000000000000000206040C0C080808080BE
:1003000080808080C0406060000000000000C0402D
:100310006020203030303030303020206040C0004D
:100320000000000000005870FC7058000000000041
:1003300000000000000000000000000000000000BD
:1003400000001018187EFF181810000000000000B0
:10035000000000000000000000000000000000009D
:1003600040C0C080800000000000000000000000CD
:100370000000007EFF000000000000000000000000
:10038000000000000000000000000000000000C0AD
:1003900000000000004000C000800180010001005A
:1003A000030002000600060004000C00080018000C
:1003B0001800100030002000600060004000C00005
:1003C000000000000000007E42C3C3C3C3C3C3C318
:1003D000C3C3C3663C0000000000000000001838E2
:1003E00078D81818181818181818181800000000CD
:1003F00000000000007C4682030206040C18103046
:100400006040FF000000000000000000FC06020346
:10041000023E3E060303030206FC0000000000004B
:100420000000000000000000180010001000300064
:10043000300020002000660046004600FF800600D5
:1004400006000600000000000000000000000000A0
:1004500000FFC0C0C0C0F87E020303030206FC0018
:1004600000000000000000000C183060407CFEC35B
:10047000C3C3C3C3663C000000000000000000FFCF
:10048000C2820604040C0C080818181010000000A2
:1004900000000000000000000000003E002300619A
:1004A00000610061003F003F0061804180C080C06A
:1004B00080418077001E0000000000000000000066
:1004C000000000007E42C3C3C3C3437F0206060C84
:1004D00018300000000000000000000000000000D4
:1004E0000000C00000000000C0000000000000008C
:1004F000000000000000000000C00000000000C07C
:10050000C080800000000000000000000000020F1A
:100510003C70F01C0702000000000000000000001A
:100520000000000000007FFE0000FF00000000004F
:1005300000000000000000000000000040F03C0E41
:100540000F38E080000000000000000000007CE6A2
:100550008202060C08181818180000180000000085
:10056000000000000000000000000FE0183030180C
:1005700063CC47C44446C446C446446667FC600036
:1005800030101E7007C000000000000000000000D6
:10059000000000000000000008001C001C00140007
:1005A000360032002200630061007F00C180C080FD
:1005B000808080C0000000000000000000000000FB
:1005C000000000000000FF00C300C100C100C10026
:1005D000FF00FF00C180C080C080C080C080C1809B
:1005E000FF00000000000000000000000000007F8D
:1005F00040C0C0C0C0C0C0C0C0C0C0603F0000009C
:100600000000000000000000000000FF00C180C0EA
:1006100080C080C080C080C080C080C080C080C0DA
:1006200080C080C180FF00000000000000000000CA
:1006300000000000FFC0C0C0C0FCFCC0C0C0C0C003
:10064000C0FF000000000000000000FFC0C0C0C0EC
:10065000FEFFC0C0C0C0C0C0C0000000000000005D
:10066000000000000000007F804000C000C000C00B
:1006700000C380C380C080C080C080C080C0806054
:10068000803F80000000000000000000000000002B
:100690000000000000C080C080C080C080C080FF1B
:1006A00080FF80C080C080C080C080C080C080C00B
:1006B0008000000000000000000000000000C0C03A
:1006C000C0C0C0C0C0C0C0C0C0C0C0C0000000002A
:1006D00000000000000404040404040404040404EE
:1006E000040CF80000000000000000000000000002
:1006F00000C180C300C600CC00D800F800E800CCE0
:1007000000C600C600C300C100C180C08000000058
:1007100000000000000000000000C0C0C0C0C0C059
:10072000C0C0C0C0C0C0C0FF00000000000000008A
:10073000000000000000C060E0E0E0E0F1E0D16017
:10074000DB60CE60C460C060C060C060C060C0607C
:10075000C040000000000000000000000000000099
:1007600000000000C080E080E080F080D080D88071
:10077000C880CC80C680C680C380C180C180C08054
:100780000000000000000000000000000000000069
:1007900000007F004180C080C080C080C080C080D9
:1007A000C080C080C080C080C08061803F000000E9
:1007B0000000000000000000000000000000000039
:1007C000FF00C180C080C080C080C080C180FF00A9
:1007D000C000C000C000C000C000C0000000000099
:1007E00000000000000000000000000000007F008A
:1007F0004180C080C080C080C080C080C080C08078
:10080000C080C680C38061C03F600000000000005F
:10081000000000000000000000000000FF00C18098
:10082000C080C080C080C080C180FF00CC00C600F6
:10083000C200C300C180C0800000000000000000B2
:10084000000000000000000000003F006180400048
:100850004000700038000C0007000180008000801C
:10086000818073803E000000000000000000000056
:100870000000000000000000FF80080008000800E1
:100880000800080008000800080008000800080028
:100890000800080000000000000000000000000048
:1008A000000000000000C080C080C080C080C08008
:1008B000C080C080C080C080C080C080C080618097
:1008C0003F000000000000000000000000000000E9
:1008D00000000000C040404060C060802080318047
:1008E000310011001B001A000A000E000C00040069
:1008F00000000000000000000000000000000000F8
:100900000000C00840084018601860102310231031
:10091000273037B034A01CE018E018601840000001
:1009200000000000000000000000000000000000C7
:10093000C06060C0218031801B000E000E000E00E0
:100940001A001B003180608060C0C06000000000A1
:100950000000000000000000000000000000C06077
:1009600060C0308011801B000E00040004000400F1
:100970000400040004000400040000000000000063
:100980000000000000000000000000007FE000C048
:10099000008001800300020006000C00080018001F
:1009A000300020006000FFE00000000000000000B8
:1009B00000000060E0C0C0C0C0C0C0C0C0C0C0C0B7
:1009C000C0C0C0E00000004000C000400060002047
:1009D00000300010001000180008000C000C00048B
:1009E00000060002000300030001000180008000F7
:1009F000C000C00000000000E0E0202020202020F7
:100A00002020202020202020E0000000187EC300AD
:100A100000000000000000000000000000000000D6
:100A200000000000000000000000000000000000C6
:100A300000000000000000000000000000000000B6
:100A40000000000000000000000000FF8000000027
:100A50000000000000E06030000000000000000026
:100A60000000000000000000000000000000000086
:100A7000000000000000000000003F006300C30011
:100A8000C300C300C300C300C30067003D80000073
:100A90000000000000000000000000C0C0C0C0FC5A
:100AA000C6C3C3C3C3C3C3C6FC000000000000002C
:100AB0000000000000003C60C0C0C0C0C0C0603C7E
:100AC000000000000000000000030303033F63C3B5
:100AD000C3C3C3C3C3633F000000000000000000A5
:100AE000000000003C66C3C3FFFEC0C0603F0000C2
:100AF0000000000000000038606060F86060606026
:100B00006060606060000000000000000000000005
:100B100000003F63C3C3C3C3C3C3633F0303027E79
:100B20000000000000C0C0C0C0FCC6C3C3C3C3C334
:100B3000C3C3C3000000000000000000C0000000AC
:100B4000C0C0C0C0C0C0C0C0C0C000000000000025
:100B500000000030000000303030303030303030B5
:100B600030303030E00000000000C0C0C0C0C3C65C
:100B7000DCF0F0D8CCC4C6C30000000000000000C8
:100B800000C0C0C0C0C0C0C0C0C0C0C0C0406000C5
:100B90000000000000000000000000000000000055
:100BA0000000000000FF80C4C0C440C440C440C472
:100BB00040C440C440C440C44000000000000000E5
:100BC00000000000000000000000FCC6C3C3C3C357
:100BD000C3C3C3C300000000000000000000000009
:100BE000003C66C3C3C3C3C3C3663C00000000002F
:100BF0000000000000000000FCC6C3C3C3C3C3C3A1
:100C0000C6FCC0C0C0C00000000000000000003FE3
:100C100063C3C3C3C3C3C3633F0303030300000031
:100C2000000000000000F8CCC4C0C0C0C0C0C0C0FC
:100C3000000000000000000000000000007CCE80EA
:100C4000C070180C06DC78000000000000000000F6
:100C500020202020FC2020202020202020200000F8
:100C60000000000000000000000000C3C3C3C3C3B5
:100C7000C3C3C3633F000000000000000000000089
:100C80000000C342626624343C18181800000000BB
:100C90000000000000000000000000000000000054
:100CA0000000C0404060404064C06EC02E802A807A
:100CB0003B803180110000000000000000000000B7
:100CC00000000000000000C366663C18183C666621
:100CD000C300000000000000000000000000C2424D
:100CE0004666642C3C381818101030E000000000F4
:100CF0000000000000FF06060C1818306060FF00BE
:100D00000000000000003070404040404040C0C043
:100D1000404040404040700000000000000000C81B
:100D2000C8C8C8C8C8C8C8C8C8C8C8C8C80000009B
:100D30000000000040E0202020202020383020202B
:100D400020202020E0000000000000000000000043
:100D50000000000000000000000000000000000093
:100D600000007880CF80000000000000000000003C
:100D70000000000000000000000000000000000073
:100D80000000000000000000000000000000000063
:100D90000000000000000000000000000000000053
:100DA0000000000000000000000000000000000043
:100DB0000000000000000000000000000000000033
:100DC00000000000000000000000000000C0E02063
:100DD00040400000000000000080034002C004000A
:100DE000040004000C003F800C000C000C00080004
:100DF0000800080018001800180010009000A0005B
:100E000000000000000000000000000000000000E2
:100E10000044EEE622424400000000000000000012
:100E200000000000000000000000000000000000C2
:100E30000000000008000800080008000800FF800B
:100E40000800080008000800180008000800080052
:100E50000800080008000800080008000000000062
:100E6000000008000800080008000800FF800800D3
:100E70000800080008001800080008001000F780AB
:100E8000C90008000800080018000038CE00000063
:100E90000000000000000000000000000000000052
:100EA000000000000000000000000040003880004A
:100EB000678000450000450000C500008A00008AE8
:100EC000000094C18075A2800524400B2C400A28A4
:100ED00080122880122880124900238D00200200F1
:100EE000000000000000000063001C0000001D0066
:100EF00063804180C080C080E000700038001C002A
:100F0000070003800180808080808080C180FF0096
:100F100000000000000000000000000000000810B9
:100F20002060C040201010080000000000000000F9
:100F30000000000000000007FFF018301020101023
:100F4000601010401000401020401020C01060C001
:100F50001FE0C01020401020401000601000601002
:100F6000083010081838180FFFF0000000000000CB
:100F70000000000000000000000000000000000071
:100F80000000000000000000000000000000000061
:100F90000000000000000000000000000000000051
:100FA0000000000000000000000000000000000041
:100FB0000000000000000000000000000000000031
:100FC00000000000000000000000000000000040E1
:100FD000808080C0E0800000000000000000000071
:100FE00000000000000080C0E02040808000000081
:100FF00000000000000000000000000000428484A7
:1010000084C7E7820000000000000000000000002C
:101010000000000084C7E721428284000000000035
:1010200000000000000000000000000000000000C0
:1010300000000000000000000000000000000000B0
:1010400000000000000000000000FE0000000000A2
:101050000000000000000000000000000000000090
:101060000000000000000000000000000000000080
:1010700000000000000000000000FFFFF80000007A
:101080000000000000000000000000000000000060
:1010900000000000000000000000000000E49800D4
:1010A0000000000000000000000000000000000040
:1010B0000000000000000000000000000000FEE052
:1010C000709260401050C010514010514010494083
:1010D000104A401046401044403864F000000000C0
:1010E0000000000000000000000000000000000000
:1010F00000000000000000000000000000C67800B2
:10110000007C8484C060381C048484F800000000E3
:10111000000000000000000080804020302040805F
:1011200080800000000000000000000000000000BF
:10113000000000000010002CE04510431083F082F6
:10114000008200830083084310459038E0000000CF
:10115000000000000000000000000000000000008F
:10116000000000000000000000000000000000007F
:10117000000000000000000000000000000000006F
:10118000000000186018600000FC3C3010101018BF
:10119000200C400C40068002800300030003000383
:1011A000000300030003000FC00000000000000067
:1011B000000000000000000000000000000000002F
:1011C0000000000000000000000000000000C0C09F
:1011D0000000C0C0C0C0C0C0C0C0C0C0C0000000CF
:1011E000000000000000000000010001001F007F5F
:1011F0008063C0C4C0C400C400C800C8C071C07F40
:10120000803F0020002000000000000000000000DF
:101210000000001F003F8071C060C060006000607F
:1012200000FE00FE003000300020007C40FFC08344
:10123000C0000000000000000000000000000000EE
:1012400000000000004040FFE07FC071C060C0604F
:10125000C060C071C07FC0FFE040400000000000DF
:10126000000000000000000000000000000000C0BE
:10127000306060606030C0198019800F007FE07FAF
:10128000E006007FE07FE0060006000600000000A8
:10129000000000000000000000C0C0C0C0C0C0C00E
:1012A000C000000000C0C0C0C0C0C0C00000003C02
:1012B0007E603018784CC6C24363361C0C06467EEE
:1012C0000000000062440000FFC0C0C0C0FCFCC0C1
:1012D000C0C0C0C0C0FF000000000000000000004F
:1012E000000007C01830200843C446648C628C029A
:1012F0008C028C028C62466443C42008183007C0FC
:101300000000000000000000000000007CC6067E17
:10131000C6C67E00FE0000000000000000000000C5
:10132000000000000000000000123366CCDC6633D1
:10133000120000000000000000000000000000009B
:101340000000000000000000000000007F80FF801F
:10135000008000800000000000000000000000008D
:10136000000000000000000000000000000000007D
:10137000000000000000000000000000000000006D
:1013800000000007C01830200840044FC48C628C55
:10139000628C628FC28CC24CC44C64200818300727
:1013A000C000000000000000000000FFE00000009E
:1013B000000000000000000000000000000000002D
:1013C000000000000000000000000000000000001D
:1013D000000000000000000000000078CC8484CCF5
:1013E0007800000000000000000000000000000085
:1013F0000000000000181818FF18181800007FFEE1
:1014000000000000000000000078CC0C1C3870E0E8
:10141000FC000000000000000000000000000000D0
:1014200078CC0C300C0CCC780000000000000000E0
:10143000000000000000007060C00000000000001C
:10144000000000000000000000000000000000009C
:1014500000000000000000000000C180C180C180C9
:10146000C180C180C180C180C180E380FFC0FCC059
:10147000C000C000C000C00000000000000000006C
:1014800000003FC07D807D80FD80FD807D807D806F
:101490003D800D800D800D800D800D800D800D80B4
:1014A0000D800D800D800000000000000000000095
:1014B00000C0C000000000000000000000000000AC
:1014C0000000660000003C66C3C3FFFEC0C0603F72
:1014D0000000000000000000000000000000C09CB0
:1014E000E096E0B6F0B6D0B6D89EC89CCC80C4805A
:1014F000C680C380C180C180C080000000000000A1
:101500000000000000003844C6C6C6443800FE0093
:1015100000000000000000000000000000000000CB
:1015200000000088DC66333366CC980000000000C1
:10153000000000000000000030043008F0103020EF
:10154000302030403080310C011C021C042C044C33
:10155000087E100C200C00000000000000000000BD
:1015600000000000000030043008F010302030206F
:1015700030403080313C01660206040E041C0838FD
:101580001070207E0000000000000000000000003D
:10159000000000007802CC040C0830100C100C2065
:1015A000CC407886008E010E02160226043F080603
:1015B0001006000000000000000000000000000015
:1015C00000000000000000000000180018000000EB
:1015D000000018001800180030007000E000C00083
:1015E000C000C180E3807F00000000000000000018
:1015F000000008001C001C0014003600320022000D
:10160000630061007F00C180C080808080C00000D6
:1016100000000000000000000000000000000000CA
:10162000FF00C000C000C000C000FE00FF00C1807D
:10163000C080C080C080C080C180FF00000000006A
:101640000000000000000000000000000000FF009B
:10165000C300C100C100C100FF00FF00C180C08005
:10166000C080C080C080C180FF000000000000007A
:1016700000000000000000FFC0C0C0C0C0C0C0C06B
:10168000C0C0C0C0C000000000000000000000009A
:101690000000001F801880188010801080108010BB
:1016A00080108030803080308020802080FFC0C05B
:1016B000400000000000000000000000FFC0C0C0AB
:1016C000C0FCFCC0C0C0C0C0C0FF000000000000E3
:1016D0000000000000000000C6306620366036C002
:1016E0001F800F000F000F801E8036C036406660DE
:1016F0004630C6100000000000000000000000009E
:1017000000FC848606067C7C0606060686CC7800ED
:1017100000000000000000000000000000C180C1C7
:1017200080C380C280C680C480CC80C880D880F04E
:1017300080F080E080C080C08000000000000000D9
:1017400000000000001E0000000000C180C180C336
:1017500080C280C680C480CC80C880D880F080F0F1
:1017600080E080C080C08000000000000000000019
:10177000000000000000000000C180C300C600CCD3
:1017800000D800F800E800CC00C600C600C300C1C5
:1017900000C180C0800000000000000000000000C8
:1017A000000000000000000F8008801880188010E2
:1017B0008010803080208020806080608040804069
:1017C00080C0800000000000000000000000000059
:1017D0000000000000C060E0E0E0E0F1E0D160DB8C
:1017E00060CE60C460C060C060C060C060C060C0E7
:1017F00040000000000000000000000000000000A9
:10180000000000C080C080C080C080C080FF80FF1A
:1018100080C080C080C080C080C080C080C0800088
:1018200000000000000000000000000000000000B8
:10183000007F004180C080C080C080C080C080C068
:1018400080C080C080C080C08061803F00000000F8
:10185000000000000000000000000000000000FF89
:1018600080C080C080C080C080C080C080C080C078
:1018700080C080C080C080C080C0800000000000A8
:1018800000000000000000000000000000FF00C198
:1018900080C080C080C080C080C180FF00C000C008
:1018A00000C000C000C000C0000000000000000038
:1018B0000000000000007F40C0C0C0C0C0C0C0C069
:1018C000C0C0603F000000000000000000000000F9
:1018D0000000FF8008000800080008000800080059
:1018E00008000800080008000800080008000000C0
:1018F00000000000000000000000000000000000E8
:10190000C080C080C080C080C080C08040807F8098
:10191000008000800080008001803F000000000007
:1019200000000000000000000000000000000600B1
:1019300006003FC076604630C630C630C6304630FE
:1019400076603FC0060006000600000000000000B0
:10195000000000000000000000000000C06060C047
:10196000218031801B000E000E000E001A001B00AB
:101970003180608060C0C060000000000000000096
:1019800000000000000000000000C080C080C08097
:10199000C080C080C080C080C080C080C080C08047
:1019A000C080C080FFC00040004000000000000078
:1019B0000000000000000000C080C080C080C08027
:1019C000C080C08040807F800080008000800080D8
:1019D0000080008000000000000000000000000007
:1019E000000000000000C630C630C630C630C63029
:1019F000C630C630C630C630C630C630C630C63037
:101A0000FFF00000000000000000000000000000E7
:101A100000000000C630C630C630C630C630C63002
:101A2000C630C630C630C630C630C630C630FFF805
:101A30000008000800000000000000000000000096
:101A40000000F80018001800180018001FC01FE060
:101A50001830183018301830183018301FE00000D7
:101A60000000000000000000000000000000000076
:101A7000C040C040C040C040C040FC40FE40C340E9
:101A8000C340C340C340C340C640FC400000000008
:101A90000000000000000000000000000000C00086
:101AA000C000C000C000C000FE00FF00C180C080B8
:101AB000C080C080C080C180FF0000000000000026
:101AC000000000000000000000000000FF00018096
:101AD0000080008000800F801F80008000800080D8
:101AE000008000800180FF00000000000000000076
:101AF00000000000000000000000CFC0D840D84027
:101B0000D840D840F840F840D840D840D840D840D5
:101B1000D840CCC0C78000000000000000000000DA
:101B200000000000000000007F804080C080C08076
:101B3000C080C08040807F801880108030806080AE
:101B40004080C08000000000000000000000000095
:101B500000000000000000000000000000003F0046
:101B60006300C300C300C300C300C300C300670019
:101B70003D8000000000000000000000000000FFA9
:101B80006030183E66C3C3C3C3C3C3663C000000D5
:101B9000000000000000784CCCD8FEE6C3C3C3C3ED
:101BA000C3C3663C0000000000000000000000000D
:101BB000007CE603061C386040677E0000000000E1
:101BC000000000007E0203033F63C3C3C3C3C3C35B
:101BD000663C000000000000000000000000003C27
:101BE00066C3C3FFFEC0C0603F00000000000000ED
:101BF000000000000000000000000000000000C421
:101C00004044C0648035801F001F003580648044DC
:101C1000C0C4400000000000000000000000000000
:101C2000000000007CC606061C1C0606E67C0000C0
:101C30000000000000000000000000C3C3C3C3C3D5
:101C4000C3C3C3633F0000000000000000003C006D
:101C50000000C3C3C3C3C3C3C3C3633F00000000CA
:101C6000000000000000000000C2C6CCD8F0F8CC94
:101C7000C4C6C20000000000000000000000000018
:101C80001F1313332323634343C3000000000000EA
:101C90000000000000000000000000000000000044
:101CA000C080E180E380F680DC80CC80C880C0808A
:101CB000C080C080000000000000000000000000A4
:101CC0000000000000C3C3C3C3FFFFC3C3C3C300FE
:101CD0000000000000000000000000003C66C3C3DC
:101CE000C3C3C3C3663C0000000000000000000046
:101CF000000000FCC6C3C3C3C3C3C3C3C30000000A
:101D000000000000000000000000FCC6C3C3C3C305
:101D1000C3C3C6FCC0C0C0C000000000000000007B
:101D2000003C60C0C0C0C0C0C0603C0000000000FB
:101D300000000000000000000000000000000000A3
:101D400000FF80C4C0C440C440C440C440C440C4B8
:101D500040C440C44000000000000000000000003B
:101D6000000000000000C3C3C3C3C3C3C3C3633FB9
:101D70000303027E000000000000000000000000DD
:101D80000400040004001F0075C044C0C440C440E7
:101D9000C440C44064C075801F00040004000400F7
:101DA0000400000000000000000000C366663C184C
:101DB000183C6666C3000000000000000000000040
:101DC0000000000000000000000000C300C300C3CA
:101DD00000C300C300C300C300C30063003F800012
:101DE0008000000000000000000000000000000073
:101DF000C3C3C3C37F3F030303030000000000000D
:101E000000000000000000000000000000000000D2
:101E1000C440C440C440C440C440C440C440C440A2
:101E200064403FC00000000000000000000000000F
:101E30000000000000000000000000000000C4409E
:101E4000C440C440C440C440C440C440C4406440D2
:101E50003FF0003000000000000000000000000023
:101E6000000000E06060607E7F6161637E000000D2
:101E70000000000000000000000000000000000062
:101E8000000000C080C080C080C080F880FC80C49A
:101E900080C480CC80F880000000000000000000BA
:101EA0000000000000000000C0C0C0C0FCFEC3C3B2
:101EB000C6FC00000000000000000000000000FC64
:101EC0000603031F0F030306FC00000000000000D0
:101ED000000000000000000000000000000000CF33
:101EE00000D980D880D880F880F880D880D880D970
:101EF00080CF000000000000000000000000000093
:101F0000000000003F63C3C37F3F336363C300002F
:101F10000000000030B403000C0015006A1E002D04
:101F200004D025781D70641C5B1CF6E730BC70473C
:101F300010B403001400621E002C02D019705B1C48
:101F4000F8E710BC704770B403001C000D000020BF
:101F50001600721E002E06D020782E78801B6D1C75
:101F6000641C0028F4D070BC70470278002A04D0AA
:101F700002788A4201D0401CF7E70078704730B4FD
:101F8000002423001A00022A29D2DFF8404B0C2536
:101F900005FB02F56459002C1DD0DFF8304B0C25F1
:101FA00005FB02F564590568AC4216D1DFF81C4BFD
:101FB0000C2505FB02F52C4464688568AC420CD105
:101FC000DFF8084B0C2505FB02F52C442489C58855
:101FD000AC4202D103E001242300521CD3E7022AC1
:101FE00008D1002B01D1022901D1002000E01220EC
:101FF000C0B20FE0002909D1DFF8D00A0C2101FBA3
:1020000002F108444089B0F5807F01D1102000E042
:102010000020C0B230BC704700210800022809D25D
:10202000DFF8A81A0C2202FB00F28958002901D01F
:10203000401CF3E7022801D1002000E00120704796
:1020400030B4020000200300022B1ED2DFF87C0A0D
:102050000C2404FB03F400591468A04213D1DFF8E8
:102060006C0A0C2404FB03F4204440689468A042EA
:1020700009D1DFF8580A0C2404FB03F4204400893A
:10208000D488A04201D05B1CDEE7022B30D10020B7
:102090000300022B09D2DFF8340A0C2404FB03F4FA
:1020A0000059002801D05B1CF3E7022B01D100206E
:1020B00040E01068DFF8144A0C2505FB03F5605179
:1020C0009068DFF8084A0C2505FB03F52C44606096
:1020D000D088DFF8F8490C2505FB03F52C44208156
:1020E0000020DFF8E8490C2505FB03F52C4460814E
:1020F00000290AD0DFF8D4090C2404FB03F420449F
:102100004089002801D0002014E0002902D04FF4BB
:10211000807007E0DFF8B4090C2404FB03F42044CA
:102120004089401CDFF8A4490C2505FB03F52C442D
:102130006081581C30BC704730B40100491E022930
:1021400025D2DFF888390C2404FB01F423445B8991
:102150001A0092B2B2F5807F01D100231A0092B228
:10216000002A00D0521EDFF864390C2404FB01F46D
:1021700023445A8192B2002A06D10023DFF84C4949
:102180000C2505FB01F563510023180001E0022333
:102190001800C0B230BC704710B4002211000229F0
:1021A00010D2DFF828290C2303FB01F3D258824216
:1021B00006D10022DFF814390C2404FB01F41A5173
:1021C000491CECE710BC7047F8B50400002794F8F0
:1021D0000402002829D0D4F82C02050001232A008B
:1021E000210094F8010201F04DFC002802D00120EA
:1021F00007001AE0002084F80402D4F82002281A0C
:10220000D4F81812884210D294F803020600022E65
:102210000BD3D4F81802451901232A00210094F8A1
:10222000010201F02FFC761EF1E73800C0B2F2BDCA
:1022300070B504000D000026D4F82C02854216D09B
:102240002000FFF7C1FF0600F6B2002E0FD10123D8
:102250002A00210094F8010201F0F8FB002804D0C4
:102260005FF0FF30050001200600C4F82C5230005A
:10227000C0B270BD38B504002000FFF7A5FF05000F
:10228000EDB2002D69D194F8000203285BD194F8D7
:102290000502012857D14FF4007200212000FFF7FA
:1022A00047FE552084F8FE01AA2084F8FF01522041
:1022B0002070522060706120A0704120E070722078
:1022C00084F8E401722084F8E501412084F8E601F5
:1022D000612084F8E701D4F8100284F8E801D4F80A
:1022E000100280B2000A84F8E901D4F81002000C50
:1022F00084F8EA01D4F81002000E84F8EB01D4F857
:102300000C0284F8EC01D4F80C0280B2000A84F8C4
:10231000ED01D4F80C02000C84F8EE01D4F80C02A4
:10232000000E84F8EF01D4F81C02401CC4F82C0203
:102330000123D4F82C22210094F8010201F0A2FB21
:10234000002084F805020022002194F8010201F027
:10235000B5FB002801D0012005002800C0B232BD25
:102360000200891ED2F81402801E814201D300208F
:1023700005E092F80202D2F8282200FB0120704703
:102380002DE9F84304000D00022D03D3D4F8140204
:10239000854202D3012081466DE05FF0FF30814627
:1023A00094F80002012804D063D3032841D029D334
:1023B0005FE02F0017EB5707D4F8200210EB5721EE
:1023C0002000FFF735FF002855D1F805C00D205C2F
:1023D00006007F1CD4F8200210EB57212000FFF7E5
:1023E00027FF002847D1F805C00D205C56EA0026DB
:1023F000E80702D55FEA161903E05FEA06595FEACB
:10240000195938E0D4F8200210EB15212000FFF70D
:102410000FFF00282FD16800C005C00D2044804662
:1024200098F8010098F8001051EA002080B2814627
:1024300021E0D4F8200210EBD5112000FFF7F8FEC0
:10244000002818D1A800C005C00D2044804698F887
:10245000030098F80210090451EA006098F801108E
:1024600050EA012098F80010084320F0704081469F
:1024700001E0012081464846BDE8F2832DE9F8439A
:1024800004000D001600022D03D3D4F81402854277
:1024900002D30220814699E094F80002012805D079
:1024A000C0F09280032866D048D38DE02F0017EB50
:1024B0005707D4F8200210EB57212000FFF7B8FE91
:1024C00081465FFA89F9B9F1000F40F07F80F80585
:1024D000C00D204480467F1CE80706D598F8000010
:1024E00010F00F0050EA061000E0300088F80000FD
:1024F000012084F80402D4F8200210EB57212000B8
:10250000FFF796FE81465FFA89F9B9F1000F5DD1B8
:10251000F805C00D20448046E80701D5300907E0E2
:1025200098F8000010F0F000310A11F00F01084394
:1025300088F80000012084F8040247E0D4F8200263
:1025400010EB15212000FFF773FE81465FFA89F931
:10255000B9F1000F3AD16800C005C00D2044804693
:1025600088F80060300080B2000A88F8010001207D
:1025700084F804022AE0D4F8200210EBD5112000E0
:10258000FFF756FE81465FFA89F9B9F1000F1DD1B8
:10259000A800C005C00D2044804698F8030000063E
:1025A00010F07040064388F80060300080B2000AE6
:1025B00088F80100300C88F80200300E88F803001B
:1025C000012084F8040201E0022081464846C0B29E
:1025D000BDE8F283F8B504000D00022D03D3D4F852
:1025E0001402854202D30220060032E000200600D9
:1025F000D4F8140285422CD229002000FFF7C0FE37
:102600000700002F25D0012F02D10220060020E074
:1026100017F1010F02D1012006001AE00022290063
:102620002000FFF72BFF0600F6B2002E11D1D4F8E0
:10263000100210F1010F0AD0D4F81002401CC4F8A7
:10264000100294F8050250F0010084F805023D00E4
:10265000CEE73000C0B2F2BD2DE9F84304000D0012
:10266000002D0CD1D4F80C028046B8F1000F03D035
:10267000D4F81402804517D30120804614E02900C5
:102680002000FFF77DFE0600022E01D2012060E04F
:1026900016F1010F01D130005BE0D4F8140286423C
:1026A00001D2300055E0A84647467F1CD4F81402FA
:1026B000874205D302200700B84501D2002048E038
:1026C00039002000FFF75CFE0600002E0CD17FF0E1
:1026D000704239002000FFF7D1FE81465FFA89F988
:1026E000B9F1000F13D10AE016F1010F01D0012E4C
:1026F00001D130002DE04745D7D1002029E0002D41
:1027000005D03A0029002000FFF7B8FE81465FFAA5
:1027100089F9B9F1000F12D1C4F80C72D4F8100283
:1027200010F1010F14D0D4F81002401EC4F81002AA
:1027300094F8050250F0010084F8050208E05FFA01
:1027400089F9B9F1010F02D15FF0FF3700E00127ED
:102750003800BDE8F28370B40200506A001D050025
:10276000480A166896F80262B0FBF6F00300286883
:1027700004002D1D002C01D1002007E0A34202D24D
:102780002868C01802E01B1B2D1DF0E770BC7047C5
:102790002DE9F04104000D00E580A0680600012E3F
:1027A00004D02068D0F81402864201D3022049E008
:1027B000002E08D1206890F80002032803D1206879
:1027C000D0F824020600002E0BD12068B0F80802D1
:1027D000854201D3022035E02068D0F824020700AA
:1027E00021E0206890F8020200018046454515D39B
:1027F00031002068FFF7C4FD060016F1010F01D17A
:1028000001201FE0022E04D32068D0F81402864273
:1028100001D3022016E0B5EB0805E7E73100206898
:10282000FFF79EFD0700E660002F01D1022009E0BE
:1028300017EB15102061206815F00F0149010844BD
:1028400060610020BDE8F0812DE9F04104000D0039
:10285000E088401C0700380402D02069002801D11C
:10286000042085E017F00F0F7AD12069401C206109
:10287000E068002806D12068B0F8080287426FD3CC
:10288000042075E0206890F80202401E10EA171F2D
:1028900066D1E1682068FFF773FD0600022E01D2C1
:1028A000022065E016F1010F01D1012060E02068EF
:1028B000D0F8140286424DD3002D01D1042057E0F8
:1028C000E1682068FFF7C8FE0600002E01D107204E
:1028D0004EE0012E01D102204AE016F1010F01D194
:1028E000012045E02068FFF76FFC002801D001209F
:1028F0003EE04FF4007200212068FFF719FB310021
:102900002068FFF72DFD2168C1F82C0200208046C9
:10291000206890F80202804514D20120216881F8D5
:1029200004022068FFF750FC002801D001201FE0BE
:102930002068D0F82C02401C2168C1F82C0218F144
:102940000108E5E72068D0F82C02B0EB0800216808
:10295000C1F82C02E66031002068FFF701FD20611C
:10296000E780206817F00F014901084460610020EA
:10297000BDE8F081F8B504000D0000212000FFF74C
:1029800007FF0600F6B2002E1FD1002007002169C4
:102990002068FFF74DFC0600F6B2002E15D16069E5
:1029A0000078E52803D060690078002803D17F1CF7
:1029B000AF4202D109E00020070001212000FFF70B
:1029C00043FF0600F6B2002EE1D0F6B2042E01D18C
:1029D000072006003000C0B2F2BD10B40200CB7E6A
:1029E0008C7E54EA03239BB2180092F80032032B2A
:1029F00006D14B7D0C7D54EA03239BB250EA034081
:102A000010BC704781760A0092B2120AC2760A0C94
:102A100002750A0C92B2120A42757047F8B50400AA
:102A200000212000FFF7B4FE0700FFB2002F02D004
:102A30003800C0B225E021692068FFF7F9FB0700E4
:102A4000FFB2002F1BD16069060030780500EDB29F
:102A5000002D02D10420070011E0F07A000706D40F
:102A60000B22A1693000FFF76EFA002807D0002181
:102A70002000FFF7E9FE0700FFB2002FDBD038008F
:102A8000C0B2F2BD38B5040001212000FFF772FF8B
:102A90000500EDB2002D15D121692068FFF7C8FBB4
:102AA0000500EDB2002D0DD1202200216069FFF755
:102AB0003FFA0B22A1696069FFF72CFA0120216817
:102AC00081F804022800C0B232BD00003C3E002064
:102AD0002DE9F14F0C00206883469BF800002F2859
:102AE00003D09BF800005C2802D11BF1010BF4E736
:102AF0000098806907000B2220213800FFF718FAA0
:102B000000200500EDB2AA46D146082080461BF8F9
:102B10000900060019F10109F6B2212E05DBF6B213
:102B20002F2E02D0F6B25C2E06D10BEB09002060EE
:102B3000F6B2212E41DA3EE0F6B22E2E01D0C24589
:102B40000DD3B8F1080F02D1F6B22E2E01D0062017
:102B500052E0082082460B208046AD00D7E7F6B24F
:102B6000802E07DB55F00305DFF8E406F6B23044AB
:102B700010F8806CF6B23100DFF8D806FFF7F5F9EF
:102B8000002801D0062037E0F6B2412E05DBF6B270
:102B90005B2E02DA55F0020508E0F6B2612E05DB85
:102BA000F6B27B2E02DA55F00105203E07F80A60E6
:102BB0001AF1010AABE7042600E00026BAF1000F83
:102BC00001D1062018E03878E52801D105203870B9
:102BD000B8F1080F00D1AD00EDB215F003000128E7
:102BE00001D156F01006EDB215F00C00042801D109
:102BF00056F00806FE720020BDE8F28FF2B5040020
:102C0000009800782F2803D0009800785C2802D123
:102C10000098401C00900020A060009800782028B8
:102C200007D200212000FFF7B3FD050000206061FE
:102C300029E069462000FFF74BFF0500EDB2002DAB
:102C400021D12000FFF7EAFE0500A069C07A070045
:102C5000EDB2002D07D0EDB2042D03D1780701D4D9
:102C6000052005000FE078070DD460690600F07AB2
:102C7000C00602D40520050005E031002068FFF7FA
:102C8000ACFEA060D5E72800C0B2F2BD30B40100B0
:102C90005FF0FF300D68002D1ED00D682B001D78F1
:102CA000212D04D31D783A2D01D05B1CF7E71D7848
:102CB0003A2D0FD10D682A001578303D2C00521C9A
:102CC0000A2C06D29A4204D1032C02D220005B1CAB
:102CD0000B6001E00025280030BC704738B50400C7
:102CE0000D00002084F804025FF0FF30C4F82C02CD
:102CF00029002000FFF79CFA002801D003202DE0D6
:102D000094F8FF0194F8FE1151EA002080B24AF6CF
:102D10005521884201D0022020E094F8380094F830
:102D20003710090251EA004094F836100843DFF8E2
:102D30002815884201D1002010E094F8540094F83E
:102D40005310090251EA004094F852100843DFF88A
:102D50000815884201D1002000E0012032BD2DE994
:102D6000F34F89B093460020099908600A98FFF74D
:102D70008DFF04900498002801D50B2010E2DFF8A5
:102D8000DC04049950F821000700002F01D10C2029
:102D900006E20998076097F80002002816D097F815
:102DA000010200F027FE8DF800009DF80000C0072A
:102DB0000CD45FFA8BFBBBF1000F05D09DF800002F
:102DC000400701D50A20EBE10020E9E1002087F867
:102DD0000002049887F8010297F8010200F01BFE38
:102DE0008DF800009DF80000C00701D50320D7E151
:102DF0005FFA8BFBBBF1000F05D09DF80000400788
:102E000001D50A20CCE10020050029003800FFF799
:102E100065FF80465FFA88F8B8F1010F3ED10020C7
:102E20008146B9F1040F1BD25FEA091038444FF410
:102E3000DF7108440400207900280AD0E07AA17AE2
:102E4000090451EA0060617A50EA0120217A0843BE
:102E500000E0002005A941F8290019F10109E0E787
:102E600000208146B9F1000F01D0B9F1010905A890
:102E700050F829000500002D04D029003800FFF784
:102E80002DFF00E0022080465FFA88F8B8F1000FBD
:102E900004D019F10109B9F1040FE8D35FFA88F8F9
:102EA000B8F1030F01D101207AE15FFA88F8B8F197
:102EB000000F01D00D2073E1387BF97A51EA002030
:102EC00080B2B0F5007F01D00D2069E1F87DB97DB9
:102ED00051EA002080B28246BAF1000F0ED197F875
:102EE000270097F82610090451EA006097F825108A
:102EF00050EA012097F8241008438246C7F818A228
:102F0000387C87F8030297F80302012805D097F868
:102F10000302022801D00D2042E197F8030200FBD2
:102F20000AFA787B87F8020297F80202002806D096
:102F300097F8020297F80212491E084201D00D20AC
:102F40002EE1B87C797C51EA0020A7F8080297F8B6
:102F500008020F21084201D00D2021E1387DF97CC3
:102F600051EA002080B20290029800280ED197F812
:102F7000230097F82210090451EA006097F8211005
:102F800050EA012097F8201008430290F87BB97BA3
:102F900051EA0020ADF80200BDF80200002801D17E
:102FA0000D20FDE0BDF802001AFA80F0B7F8081213
:102FB00010EB1110039002980399884201D20D2062
:102FC000EEE002980399401A97F80212B0FBF1F074
:102FD00001900198002801D10D20E1E001208046F8
:102FE000019840F6F671884201D30220804601988C
:102FF0004FF6F671884201D3032080460198801C69
:10300000C7F81402C7F81C52BDF8020015FA80F088
:10301000C7F8200203984019C7F828025FFA88F819
:10302000B8F1030F1AD1B7F80802002801D00D201B
:10303000B6E097F82F0097F82E10090451EA0060C7
:1030400097F82D1050EA012097F82C100843C7F884
:103050002402D7F81402800006001EE0B7F8080228
:10306000002801D10D209BE0D7F820021AEB0000C8
:10307000C7F824025FFA88F8B8F1020F03D1D7F835
:103080001402460009E0D7F814020321484397F8D8
:10309000141211F0010111EB5006D7F8180206F2D4
:1030A000FF11B0EB512F01D20D2079E05FF0FF301E
:1030B000C7F81002D7F81002C7F80C02802087F872
:1030C00005025FFA88F8B8F1030F5AD197F831007A
:1030D00097F8301051EA002080B2012851D1691CC4
:1030E0003800FFF7A5F800284BD1002087F805022B
:1030F00097F8FF0197F8FE1151EA002080B24AF6D6
:10310000552188423DD1F878B978090451EA006028
:10311000797850EA0120397808435149884230D102
:1031200097F8E70197F8E611090451EA006097F86B
:10313000E51150EA012097F8E41108434949884213
:103140001FD197F8EB0197F8EA11090451EA0060E2
:1031500097F8E91150EA012097F8E8110843C7F8F9
:10316000100297F8EF0197F8EE11090451EA006098
:1031700097F8ED1150EA012097F8EC110843C7F8D1
:103180000C0287F8008238480088401C36490880C5
:1031900035480088A7F806023800FEF7FDFF00203A
:1031A0000BB0BDE8F08F38B504002500002D14D019
:1031B0002868002811D0286890F8000200280CD058
:1031C0002868B0F80602A988884206D1286890F8D5
:1031D000010200F00FFCC00701D5092000E000202B
:1031E00032BDF3B581B01400029800906846FFF735
:1031F0004DFD0600002E01D50B2026E0174850F8A3
:1032000026000500002D05D02800FEF7C5FF002090
:1032100085F800020198002803D00020019981F868
:10322000000201980D4941F826000198002802D0BB
:10323000E4B2012C01D0002007E0002202A901A87D
:10324000FFF78DFD07003800C0B2FEBD0000000092
:10325000A86101088C63010846415400BC3E00206F
:103260005252614172724161683F00202DE9F24380
:103270008CB004001500002C01D10920E0E00020F2
:10328000206015F01F0515F0FE020CA96846FFF737
:1032900066FD0600F6B2002E40F0D08009A8069028
:1032A0000C996846FFF7AAFC060005980700F6B2DD
:1032B000002E0ED1002F02D10620060009E0FE20CC
:1032C000054201D0012100E000216846FEF757FECB
:1032D00006001C20054264D0F6B2002E11D0F6B2D2
:1032E000042E09D1FEF798FE002803D06846FFF7A8
:1032F000C9FB00E01220060055F0080505980700FC
:103300000AE0F87A1121084202D00720060003E003
:10331000680701D508200600F6B2002E51D1280713
:103320004FD500F0FDFB804687F80E80404680B206
:10333000000AF8735FEA184038745FEA186078741E
:103340000020F87200203877002078770020B877C6
:103350000020F87739000098FFF73FFB81460021F5
:103360003800FFF74FFB0120009981F80402B9F102
:10337000000F26D00098D0F82C02804649460098CD
:10338000FFF728F90600F6B2002E1AD1B9F10100B4
:103390000099C1F80C0241460098FEF749FF06006B
:1033A0000FE0F6B2002E0CD1F87AC00602D5042048
:1033B000060006E0A80704D5F87AC00701D5072063
:1033C0000600F6B2002E17D1280701D555F02005CA
:1033D0000098D0F82C02E0612762FE20054201D05F
:1033E000012100E000216846FEF72AFEA062A06AE3
:1033F000002801D102200600F6B2002E1ED1A571D0
:103400000020E07139000098FFF7E7FA2061F87FAB
:10341000B97F090451EA0060797F50EA0120397FC1
:103420000843E0600020A0600020A06100206062EE
:10343000009820602068B0F80602A0803000C0B27A
:103440000DB0BDE8F0832DE9F24F82B08246140042
:103450001D00DDF80890002028605046FFF7A3FE0D
:103460008DF801009DF80100002802D09DF80100B0
:10347000E7E09AF80700002802D09AF80700E0E099
:103480009AF80600C00701D40720DAE0DAF80C0049
:10349000DAF80810401A01900198A04201D2019870
:1034A0000400002C00F0CC80DAF80800C00540F0E1
:1034B0009A80DAF80800400ADAF8001091F802124F
:1034C000491E08408DF800009DF8000000282AD110
:1034D000DAF80800002803D1DAF81000060011E03D
:1034E000DAF82400002806D0DAF808105046FFF772
:1034F00032F9060006E0DAF81410DAF80000FEF7F8
:103500003FFF0600022E04D202208AF807000220A4
:1035100097E016F1010F04D101208AF8070001207D
:103520008FE0CAF81460DAF81410DAF80000FEF739
:1035300017FF8346BBF1000F04D102208AF8070071
:1035400002207EE09DF800005BFA80FB600A804666
:10355000B8F1000F45D0DAF8000090F802029DF8AB
:10356000001058FA81F1884207D2DAF8000090F88A
:1035700002029DF80010401A804643465A464946CA
:10358000DAF8000090F8010200F060FA002804D098
:1035900001208AF80700012053E0DAF8000090F8D3
:1035A0000402002817D0DAF80000D0F82C02B0EBA3
:1035B0000B0040450FD24FF40072DAF80010DAF831
:1035C0000000D0F82C02B0EB0B004FF4007358430E
:1035D0004844FEF79FFC4FF4007000FB08F0070022
:1035E00023E0CAF818B0DAF80800C005C00DD0F51D
:1035F00000700700BC4200D22700DAF81810DAF891
:103600000000FEF715FE002804D001208AF807000C
:10361000012016E03A00DAF80000DAF80810C905CF
:10362000C90D01444846FEF775FCB944DAF80800B4
:103630003818CAF80800286838182860E41B30E7F2
:103640000020BDE8FE8FF8B504002000FFF7ABFDB9
:103650000500EDB2002D3CD1A079800639D5E16995
:103660002068FEF7E5FD0500EDB2002D31D1206A9E
:103670000700F87A50F02000F872E0683877E068C8
:1036800080B2000A7877E068000CB877E068000E36
:10369000F87721693800FFF7B5F900F041FA060024
:1036A000BE75300080B2000AF875300C3876300EE6
:1036B00078760020B8740020F874A07910F0DF004C
:1036C000A0710120216881F804022068FEF7D2FD74
:1036D00005002800C0B2F2BD38B504002000FFF795
:1036E000B2FF0500EDB2002D0FD12000FFF75BFD0A
:1036F0000500EDB2002D08D1A06AFEF71DFD050002
:10370000EDB2002D01D1002020602800C0B232BDF2
:103710002DE9F04F87B081460C004846FFF743FD86
:103720008DF808009DF80800002802D09DF80800D8
:103730005DE199F80700002802D099F8070056E1EA
:10374000D9F82400002800F08F8014F1010F50D127
:10375000D9F824008246DAF8000004901AF1040A2D
:1037600002208346D9F810000700002F32D00597B9
:10377000002080461BF1020B069718F10108390062
:10378000D9F80000FEF7FCFD0700022F04D202204A
:1037900089F8070002202AE117F1010F04D1012066
:1037A00089F80700012022E10698401C8742E3D0F7
:1037B0000498584508D3CAF800801AF1040A0598FD
:1037C000CAF800001AF1040AD9F80000D0F814026F
:1037D0008742CCD3D9F82400C0F800B004985845EB
:1037E00003D30020CAF80000FFE011208DF8080084
:1037F000FBE0D9F80C00A04202D2D9F80C0004007A
:10380000C9F80840002C00F0F080611E4846FEF721
:10381000A2FFC9F81400D9F81410D9F80000FEF777
:103820009FFD01900198002804D1022089F807002B
:103830000220DCE00198611ED9F8002092F80222F3
:10384000521E12EA512108180190D9F80800C0054B
:1038500000F0CB800198D9F81810884200F0C5809C
:103860000198C9F81800C0E0D9F80C00A04206D2AF
:1038700099F80600800702D4D9F80C000400D9F8A2
:103880000800039000200600C9F80860002C00F032
:103890009280D9F8000090F802024FF4007148437A
:1038A00000900398002818D00398401E0099B0FBA0
:1038B000F1F0611E009AB1FBF2F181420DD3039841
:1038C000401E0099491E8843C9F80800D9F808002D
:1038D000241AD9F8140005001DE0D9F810000500DD
:1038E000002D16D10021D9F80000FEF7B5FE050025
:1038F000012D04D1022089F80700022077E015F19C
:10390000010F04D1012089F8070001206FE0C9F8F8
:103910001050C9F81450002D4DD00098A04234D258
:1039200099F8060080070AD52900D9F80000FEF7AB
:1039300093FE0500002D08D10098040025E0290021
:10394000D9F80000FEF71CFD050015F1010F04D1A8
:10395000012089F80700012049E0022D05D3D9F89C
:103960000000D0F81402854204D3022089F8070031
:1039700002203CE0C9F81450D9F808000099081852
:10398000C9F808000098241AC7E7D9F808002018D9
:10399000C9F80800E0050ED02900D9F80000FEF7AC
:1039A000DFFC0600002E04D1022089F80700022067
:1039B0001DE016EB5426D9F80800C00505D0D9F84B
:1039C0001800864201D0C9F81860D9F80C00D9F85F
:1039D0000810884209D2D9F80800C9F80C0099F8F3
:1039E000060050F0200089F806009DF8080007B096
:1039F000BDE8F08F38B504003B48E4B22044007CB9
:103A00003949E4B201EB84014968496888470500F7
:103A10002800C0B232BD38B5040000253248E4B2F7
:103A2000005D00280FD101202F49E4B208552E482F
:103A3000E4B22044007C2C49E4B201EB84014968E3
:103A40000968884705002800C0B232BD2DE9F04161
:103A500004000D0016001F003B0032002900224820
:103A6000E4B22044007CDFF880C0E4B20CEB840CAC
:103A7000DCF804C0DCF808C0E04780464046C0B22D
:103A8000BDE8F0812DE9F04104000D0016001F0093
:103A90003B00320029001448E4B22044007CDFF8E7
:103AA00048C0E4B20CEB840CDCF804C0DCF80CC0B9
:103AB000E04780464046C0B2BDE8F081F8B504005A
:103AC0000D00160032002900C9B20748E4B22044B4
:103AD000007C054BE4B203EB84035B681B699847E9
:103AE00007003800C0B2F2BD983E002080B50649FC
:103AF000064800F043F8064908700649064800F0F9
:103B00003DF80649087001BDEC3E002064630108E1
:103B10007A3F0020F03E0020786301087B3F0020C0
:103B200000207047F0B4030001200024184DED7C04
:103B3000042D20DA0025164E154FFF7CF555144D47
:103B4000134EF67C05EB86056B60114D104EF67C2E
:103B500035442A740E4DED7C6E1C0D4FFE742C0006
:103B600014F130050D703A254D702F258D7000250C
:103B7000CD7000252800C0B2F0BC704738B50400F5
:103B80000D00002229002000FFF7CCFF32BD00000D
:103B9000983E00204FF4E07210440268914203D333
:103BA00043681A44914202D380680028F5D17047D7
:103BB000DFF85C07016891B94FF4803181604FF400
:103BC000805141604FF0FF31C16001610421DFF895
:103BD00044274161C2F8BC11DFF83C1701600120A5
:103BE000704701F1080313F0070305D001F1080342
:103BF000C3F1080303F007031944D21A8161C260BC
:103C000042F001034B60114428234B60DFF800179A
:103C10000969C16170472DE9F84F064601F10800B6
:103C200010F0070008BF884607D001F10800C0F176
:103C3000080000F0070001EB000802F1080010F096
:103C4000070006D002F10800C0F1080000F00700EC
:103C500002441546A5EB0800A0EB030908EB030B93
:103C600043F00300C8F80400AB4528BF01F00CFA8C
:103C70002879C00758BF01F007FAB9F1100F38BF13
:103C800001F002FAB069854209D1F0684844F06059
:103C9000C6F818B040F00100CBF8040070E170697C
:103CA00085420BD1B0684844B060C6F814B040F00B
:103CB0000101CBF804104BF8000061E1686800F0E6
:103CC0000301012940F0AF80C008C0000190C00886
:103CD00020283BD2D5F808A0EF680090BD4208BF6D
:103CE00001F0D2F9554508BF01F0CEF96868009996
:103CF000C008C000B0EBC10F18BF01F0C5F90098B3
:103D000006EBC00000F128018A4508D031698A45D8
:103D1000C0F08480DAF80C10A94240F07F8057454B
:103D200006D1009A3068012191408843306077E0E5
:103D30002830874205D0306987426FD3B868A842DF
:103D40006CD1CAF80C70C7F808A069E0EF68D5F824
:103D500018A0AF420CD0A8683169884223D3C1684B
:103D6000A94204BFB968A9421DD1C760B8601CE070
:103D700005F11400076837B905F110000768A7B10D
:103D800001E00846076807F114010A68002A02BF2B
:103D900007F110010A68002AF3D13169884202D381
:103DA0000021016001E001F06FF9BAF1000F37D096
:103DB000E86906EB80004FF49871084401688D4271
:103DC00008D10760A7B9EA6970680121914088436A
:103DD000706025E03069824508D3DAF81000A84207
:103DE00014BFCAF81470CAF8107001E001F04CF961
:103DF000B7B13069874211D3C7F818A0296929B132
:103E0000814226BF39618F6101F03EF9686938B19E
:103E10003169884202D37861876101E001F034F9A9
:103E200001980544814468684008400068604FEA92
:103E3000D90549F00100CBF804004BF80990202D7A
:103E400023D206EBC50000F12807BA46B9F1100FDE
:103E500038BF01F019F9306820FA05F1C90704D418
:103E60000121A9400843306006E0B8683169884202
:103E70002CBF824601F008F9C7F808B0CAF80CB0A8
:103E8000CBF808A0CBF80C707AE05FEA192108BFE4
:103E9000002023D0B1F5803F28BF1F201ED2A1F5FE
:103EA0008070000C00F008008140A1F58052120CD7
:103EB00002F004029140A1F580431B0CC0F10E00FA
:103EC00003F00203801AC01A994000EBD130C11DE3
:103ED00029FA01F202F0010101EB400006EB80013A
:103EE0004FF498721144CBF81C000022CBF8142038
:103EF000CBF81020726822FA00F3DB0707D4012305
:103F000003FA00F010437060C1F800B01DE00968CA
:103F10001F281DBF4008C0F1190009FA00F04846EB
:103F200000E011464A68D208D2004A4514D0C20FB8
:103F300001EB820202F1100340001A68002AF0D15E
:103F4000306983421AD3C3F800B0CBF81810CBF80D
:103F50000CB0CBF808B013E032698868914228BFF2
:103F600090420BD3C0F80CB0C1F808B0CBF80800F1
:103F7000CBF80C100020CBF8180001E001F084F819
:103F800008F10800BDE8E68F2DE9FA4D0546DFF897
:103F90008003006882B008B9FFF70AFEDFF87003FB
:103FA0000299806841182F31401E21EA00000299D1
:103FB000814280F0A9814FF4D8716E18B16839B18F
:103FC00032688018824280F09F818142C0F09C81DB
:103FD00001F062F800281EBF0446D0F8008014F1FA
:103FE000010F00F091813068716840448142306077
:103FF00038BF01467160A86980BB286908B1844256
:1040000000D22C610020F0613461C6F8148005F103
:104010002801BF48006868624FF0FF302862002026
:10402000C960896001F108024A610A61801C10318F
:104030002028F5D3B748854203D1A8F128022146AC
:104040002AE055F8040CC00805EBC000A0F10801F7
:1040500004EB0800401AA0F128021DE04FF4E070C4
:104060002918084600E08068D0B1026843681A4405
:104070009442F8D1027B120712D4AA6903689A42CB
:104080000ED347683B449A420AD208EB07014160CD
:10409000E868A96908EB00022846FFF7A2FD1DE1C8
:1040A00028698442084638BF2C6104EB080100E00F
:1040B000806880B102688A42FAD1017B09070AD47C
:1040C00004604168414441602146029B284604B097
:1040D000BDE8F04D9FE5AF6939462846FFF75AFD28
:1040E0004FF0000B0168406808440190273810F039
:1040F000070101990EBF0020C0F1080000F0070081
:1041000008442F3807F11001884234BF009700900F
:10411000009804F1080100F1180A11F00701A8F154
:10412000280005D004F10801C1F1080101F00701E0
:10413000401A2144A961E86040F001024A60084445
:104140002822426072480069E8610098083010F047
:10415000070018BF00F098FF00991B2048604FF43B
:10416000E0712944B1E80C5000980830A0E80C50E8
:104170003461C6F81480C6F81CB000980830B061ED
:10418000019801E00AF1040A0721CAF804100BF1B2
:10419000010B0AF108018142F4D3BBF1020FB8BF51
:1041A00000F072FF0098B84200F09880C01B3918E8
:1041B000C4084A68520852004A6040F00101796020
:1041C0003850202C20D205EBC40101F12806B0465E
:1041D000102838BF00F058FF286820FA04F1C907FA
:1041E00004D40121A1400843286006E0B068296991
:1041F00088422CBF804600F047FFB760C8F80C70BB
:10420000C7F80880FE6069E0010A23D0B1F5803F5D
:1042100028BF1F211ED2A1F58072120C02F00802E5
:104220009140A1F580531B0C03F004039940A1F5C4
:104230008044240CC2F10E0204F00204D21A121BB4
:10424000A14002EBD131CA1D20FA02F303F00102B2
:1042500002EB410105EB81024FF498731A44F961B6
:1042600000237B613B616B6823FA01F4E40705D40A
:10427000012088401843686017601CE012681F29FD
:104280001DBF4908C1F1190100FA01F1014600E022
:104290001A465368DB08DB00834210D0CB0F02EBD9
:1042A000830303F1100449002368002BF0D128692F
:1042B000844211D32760BA61FF60BF600EE02969B4
:1042C00090688A4228BF884206D3C7609760B8606A
:1042D000FA600020B86101E000F0D6FEE8680299BB
:1042E000814211D2401AE860A969029A0A44AA617F
:1042F00040F001005060029840F00300486004B0B4
:1043000001F10800BDE8F08D002004B0BDE8F08D9B
:104310006C3E0020EC3500206859883C2DE9F84FB0
:104320000446002689465FEA1920C9F1000B08BF40
:10433000002123D0B0F5803F28BF1F211ED2A0F559
:104340008071090C01F008018840A0F58052120C20
:1043500002F004029040A0F580431B0CC1F10E0155
:1043600003F00203891AC91A984001EBD030C11D2D
:1043700029FA01F202F0010101EB400104EB810096
:10438000D0F8300118B31F290FBF4A464A08C2F1BE
:10439000190209FA02F2002300E052004568ED0814
:1043A000ED00A5EB09055D4503D25FEA050B064666
:1043B0000BD04569D70F00EB8700002D00691CBFAB
:1043C00085422B460028E8D11846B8BBC6BB012061
:1043D00088404000414208436168084000F05D8128
:1043E00041420840401E010B01F01001C840420943
:1043F00002F00802D040830803F00403D8404508C7
:1044000005F002055118E8405918C0F34007294447
:104410003944F840401804EB8000D0F830010DE03A
:1044200008464168C908C900A1EB090159453CBFCC
:104430008B46064601690029F2D140690028F0D177
:10444000002E00F02A81A068A0EB0900834580F0CF
:10445000248120698642C0F01E817068C00809EB83
:104460000B08C000404518BF00F00EFE06EB090522
:10447000AE4280F01081F768D6F818A0B7420CD091
:10448000B0682169884223D3C168B14204BFB968CA
:10449000B1421DD1C760B8601CE006F11400076886
:1044A00037B906F110000768A7B101E008460768B0
:1044B00007F114010A68002A02BF07F110010A6817
:1044C000002AF3D12169884202D30021016001E072
:1044D00000F0DAFDBAF1000F39D0F06904EB80008A
:1044E0004FF49871084401688E4209D10760380082
:1044F00014D1F2696068012191408843606026E030
:104500002069824508D3DAF81000B04214BFCAF817
:104510001470CAF8107001E000F0B6FDBFB1206958
:10452000874212D3C7F818A0306930B12169884298
:1045300026BF3861876100F0A7FD706938B1216935
:10454000884202D37861876101E000F09DFDBBF1F4
:10455000100F09D248F00300706006EB08004168B4
:1045600041F00101416095E049F0030070604BF0BB
:10457000010068604FEADB0045F80BB020281DD22F
:1045800004EBC00101F12807216821FA00F2D207EB
:10459000BB4605D4012202FA00F00843206006E081
:1045A000B868216988422CBF834600F06DFDBD606C
:1045B000CBF80C50C5F808B0EF606BE05FEA1B2049
:1045C00023D0B0F5803F28BF1F201ED2A0F58071F8
:1045D000090C01F008018840A0F58052120C02F08D
:1045E00004029040A0F580431B0CC1F10E0103F0C2
:1045F0000203891AC91A984001EBD030C11D2BFA69
:1046000001F202F0010101EB400004EB80014FF4E4
:1046100098721144E86100226A612A61626822FA94
:1046200000F3DB0706D4012303FA00F010436060B7
:104630000D601CE009681F281DBF4008C0F119006B
:104640000BFA00F0584600E011464A68D208D20042
:104650005A4510D0C20F01EB820202F11003400054
:104660001A68002AF0D12069834211D31D60A96124
:10467000ED60AD600EE022698868914228BF9042EB
:1046800006D3C5608D60A860E9600020A86101E0E4
:1046900000F0FAFC08E100F0F7FC02E12DE9F84F28
:1046A00004468846606841420840401E010B01F004
:1046B0001001C840420902F00802D040830803F00C
:1046C0000403D840450805F002055118E840591880
:1046D000C0F3400629447118F040401804EB8000F4
:1046E000D0F830014168C908C9000646A1EB080AA4
:1046F00009E008464168C908C900A1EB0801514515
:104700003CBF8A46064601690029F2D1406900286B
:10471000F0D120698642C0F0C2807068C00808EB02
:104720000A09C000484518BF00F0AEFC06EB080BB4
:104730005E4580F0B480F768B569B7420CD0B068C8
:104740002169884223D3C168B14204BFB968B1422C
:104750001DD1C760B8601CE006F11400076837B9C6
:1047600006F110000768A7B101E00846076807F1E5
:1047700014010A68002A02BF07F110010A68002A22
:10478000F3D12169884202D30021016001E000F0E9
:104790007BFC002D35D0F06904EB80004FF498715C
:1047A000084401688E4209D10760380011D1F269CE
:1047B0006068012191408843606022E02069854261
:1047C00005D32869B04214BF6F612F6101E000F08A
:1047D0005BFCB7B12069874211D3BD61306930B14C
:1047E0002169884226BF3861876100F04DFC7069FD
:1047F00038B12169884202D37861876101E000F015
:1048000043FCBAF1100F09D249F00300706006EBC7
:104810000900416841F0010141603FE048F00300B8
:1048200070604AF00100CBF804004BF80AA0D4F8FD
:1048300008804FEAD805202D28BF00F025FCB8F1EC
:10484000000F27D0D4F81490009504EBC50000F1B8
:1048500028052F46B8F1100F38BF00F015FC20686E
:10486000009920FA01F2D10705D4009A0121914064
:104870000843206006E0A868216988422CBF0746EB
:1048800000F002FCC5F80890C7F80C90C9F8087051
:10489000C9F80C50C4F808A0C4F814B004E000F043
:1048A000F3FB0020BDE8F28F06F10800BDE8F28FAF
:1048B0002DE9F04F83B00546C046C046F52DDFF820
:1048C000C04780F002810B2D31BF102705F10B008E
:1048D000C708FF002068FE08F04010F0030F42D028
:1048E000C04300F00100861904EBC60000F128085F
:1048F000F700D8F808506868C008C000B84218BF70
:1049000000F0C2FBD5F80890454508BF00F0BCFB9D
:104910004D4508BF00F0B8FB6868C008C000B84249
:1049200018BF00F0B1FBC84505D120680121B14096
:10493000884320600DE02069814508D3D9F80C0038
:10494000A84204D1C8F80890C9F80C8001E000F032
:104950009BFB47F003006860E8190835416841F0A7
:1049600001014160F9E0A168B94280F0C0800028EF
:1049700000F0A280012505FA06F149004A42B04044
:104980001143084041420840401E010B01F0100154
:10499000C840420902F00802D040830803F0040333
:1049A000D840460806F002065118F0405918C0F3E6
:1049B00040087118414420FA08F000EB010804EBAC
:1049C000C80000F128094FEAC80AD9F808607068E1
:1049D000C008C000504518BF00F056FBD6F808B01C
:1049E0004E4508BF00F050FB5E4508BF00F04CFB91
:1049F0007068C008C000504518BF00F045FBD9459D
:104A000005D1206805FA08F1884320600DE020698F
:104A1000834508D3DBF80C00B04204D1C9F808B0D4
:104A2000CBF80C9001E000F02FFB47F00300706022
:104A3000AAEB0708F019019048F0010001994860BD
:104A4000019840F80880A7684FEAD70ABAF1200F0A
:104A500028BF00F019FB47B3CDF800A004EBCA0053
:104A6000D4F8149000F1280AD346102F38BF00F074
:104A70000BFB2068009920FA01F2D10705D40099B8
:104A800005FA01F10843206007E0DAF8080021691F
:104A900088422CBF834600F0F7FACAF80890CBF89A
:104AA0000C90C9F808B0C9F80CA0C4F8088006F149
:104AB00008050198606150E06068C0B3394620463F
:104AC000FFF7ECFD050012D047E015F1400F28BFBD
:104AD0004FF0FF370BD205F10B00C7086068FF00ED
:104AE00028B139462046FFF719FC050035D1A068EA
:104AF000B8421CD3C11B626910290AD3D019606166
:104B0000A16041F001034360415047F00300506051
:104B10000AE00021A160616140F00301516010448E
:104B2000416841F00101416002F1080515E0E068CB
:104B300087420DD2C01BA169E060CA19A26140F092
:104B40000100506001F1080547F00300486004E0EF
:104B500039462046FFF718FA0546C046C0462846A3
:104B600003B0BDE8F08F00B970472DE9F047A0F120
:104B70000804C046C046DFF8085528698442C0F0E2
:104B80007982616801F00302012A00F07382CA0889
:104B90004FEAC208CA0704EB080937D4226811F0AB
:104BA000030F00F0698251420C4484429044C0F0EB
:104BB000618269698C4200F0D980D608202E70D2BB
:104BC000D4F80CA0A768544508BF00F05DFABC42B9
:104BD00008BF00F059FA6068C008C000B0EBC60F0B
:104BE00018BF00F051FA05EBC60000F128018F4212
:104BF00005D029698F4251D3F968A1424ED1BA45F7
:104C00003DD128680121B140884328604C4580F09F
:104C10003182D9F80400C10740F12C82810700F1EC
:104C20007D81A969894540F0B680E868AC6140445F
:104C3000E86040F00101616069698C4202D10021A5
:104C40006961A960E969814280F01682DFF8340465
:104C5000006808B9FEF7ACFFA969002900F00C82D2
:104C6000E868292824BF2846FEF794FFE869E96828
:104C7000884280F001824FF0FF30E861FCE128308B
:104C8000824506D02869824508D3DAF80800A04298
:104C900004D1C7F80CA0CAF80870B7E700F0F4F91F
:104CA000B4E7E768A669A7420BD0A168814222D386
:104CB000C868A04204BFB868A0421CD1CF60B960E8
:104CC0001BE004F114010F6837B904F110010F68FB
:104CD0009FB101E011460F6807F114021368002B21
:104CE00002BF07F110021368002BF3D1814202D3F7
:104CF0000020086001E000F0C7F9002E86D0E069CE
:104D000005EB80004FF49871084401688C4209D18A
:104D10000760380011D1E269686801219140884339
:104D2000686073E72869864205D33069A04214BFE2
:104D30007761376101E000F0A7F9002F3FF466AF1B
:104D400028698742AAD3BE61216929B1814226BF61
:104D500039618F6100F098F9606900283FF456AF1F
:104D6000296988429AD3786187614FE799F80400EE
:104D700000F0030003287FF449AFC5F80880D9F894
:104D8000040040084000C9F8040048F001006060D9
:104D900044F8088070E16969894508D1A8686C61A8
:104DA0004044A86040F001016160205064E1C00807
:104DB000C0004FEAD00ABAF1200F804437D2D9F8A8
:104DC0000C70D9F80860B94508BF00F05DF9B1452D
:104DD00008BF00F059F9D9F80400C008C000B0EBD2
:104DE000CA0F18BF00F050F905EBCA0000F1280106
:104DF0008E4207D029698E42C0F08380F168494510
:104E000040F07F80B74206D12868012101FA0AF1FB
:104E10008843286077E02830874205D02869874298
:104E20006FD3B86848456CD1F760BE606BE0D9F8C5
:104E30000C70D9F818604F450DD0D9F808002969D1
:104E4000884223D3C168494504BFB96849451DD18B
:104E5000C760B8601CE009F11400076837B909F1B0
:104E600010000768A7B101E00846076807F11401C0
:104E70000A68002A02BF07F110010A68002AF3D16C
:104E80002969884202D30021016001E000F0FCF8AA
:104E9000002E38D0D9F81C0005EB80004FF4987133
:104EA0000844016889450AD10760380012D1D9F851
:104EB0001C206868012191408843686023E02869CC
:104EC000864205D33069484514BF7761376101E0F8
:104ED00000F0DAF8BFB12869874212D3BE61D9F871
:104EE000101029B1814226BF39618F6100F0CCF8E2
:104EF000D9F8140038B12969884202D378618761F2
:104F000001E000F0C1F848F00100606044F808805A
:104F1000686984420BD1C5F80880ADE040084000C4
:104F2000C9F8040048F00100606044F808804FEAC6
:104F3000D807202F22D205EBC70000F128094E46E2
:104F4000B8F1100F38BF00F09FF8286820FA07F179
:104F5000C90704D40121B9400843286007E0D9F803
:104F60000800296988422CBF064600F08DF8C9F870
:104F70000840F460A660C4F80C907DE05FEA182059
:104F800008BF002123D0B0F5803F28BF1F211ED2CB
:104F9000A0F58071090C01F008018840A0F580524D
:104FA000120C02F004029040A0F580431B0CC1F1EA
:104FB0000E0103F00203891AC91A984001EBD030A0
:104FC000C11D28FA01F202F0010101EB400105EBDD
:104FD00081004FF498721044002262612261E16105
:104FE0006A6822FA01F3DB0706D4012303FA01F110
:104FF0001143696004601CE000681F291DBF490857
:10500000C1F1190108FA01F1414600E01046426879
:10501000D208D200424510D0CA0F00EB820202F142
:10502000100349001A68002AF0D129698B4211D374
:105030001C60A061E460A4600EE02A69816890426F
:1050400028BF914206D3CC608460E060A16000205C
:10505000A06101E000F018F8286A401E28620BD118
:10506000D5F8C80100E080680028FCD14FF0FF307F
:10507000286201E000F008F8C046C046BDE8F087AD
:10508000EC3500206C3E0020012000F01BB80268C7
:10509000531C0360117070470749086808B100206D
:1050A00070470648C008C00008600549C908C90023
:1050B000091A0160704700BF643F00209723002059
:1050C0009025002080B5C046C046024A1100182035
:1050D000ABBEFBE72600020030B58BB004000D002C
:1050E00000208DF80C0000202077200001F023FA2A
:1050F00000200490002005900020069000200790DA
:10510000002008907620099004A983B068461822F0
:1051100001F060FA0EBC206801F088FA200000F06F
:1051200062FD8DF80C009DF80C00002802D09DF85F
:105130000C002AE0200000F0A5FC8DF80C009DF882
:105140000C00002802D09DF80C001EE02900200071
:1051500000F05DFA8DF80C009DF80C00002808D1D5
:10516000B5F8540002040023200000F01FFD8DF864
:105170000C00211D83B06846182201F02BFA0EBCEA
:10518000206801F053FA9DF80C000BB030BD2DE9FA
:10519000F24F8CB0060014001D00169FDDF85C80F5
:1051A0005FF0000B5FF00009DDF830A000203168EF
:1051B000C862306A022806D14FF400700700640A02
:1051C00044EAC5546D0A00971020019040200290D7
:1051D000002003904FF4806004906946306801F02D
:1051E00051FA1021300000F04DFE83465FFA8BFB30
:1051F000BBF1000F02D05846C0B2C0E05FF0FF30F4
:10520000059007FB08F00690902007900220089078
:105210000020099001200A9005A9306801F056FA93
:10522000B8F1020F02D31220019001E01120019089
:1052300000946946306801F025FAB8F1020F25D3D1
:105240001221300000F01EFE83465FFA8BFBBBF19B
:10525000000F02D05846C0B291E03068406B10F4A5
:10526000957F3AD13068406B0004F6D50020814626
:10527000B9F1080F07D2306801F0F2F94AF82900B5
:1052800019F10109F4E71AF1200AE6E711213000CB
:1052900000F0F8FD83465FFA8BFBBBF1000F02D0F4
:1052A0005846C0B26BE03068406B40F22A41084279
:1052B00013D13068406B0004F5D500208146B9F168
:1052C000080F07D2306801F0CBF94AF8290019F12C
:1052D0000109F4E71AF1200AE5E73068406BC005E0
:1052E0000FD5B8F1020F0CD3306A002805D0306A10
:1052F000012802D0306A022803D1300000F081FB7F
:1053000083463068406B000707D508203168886302
:10531000042083465846C0B231E03068406B8007B5
:1053200007D5022031688863022083465846C0B200
:1053300025E03068406B800607D5202031688863FF
:10534000062083465846C0B219E05FF0FF30814620
:105350003068406B80020CD5B9F1000F09D030687D
:1053600001F07EF9CAF800001AF1040AB9F1010946
:10537000EEE740F2FF50316888635846C0B20DB086
:10538000BDE8F08F2DE9F24F0CB48CB00400DDF8CD
:1053900064B05FF000085FF0000A002500265FF0AF
:1053A00000090E9F00208DF8000000202168C862CF
:1053B000206A02280AD14FF400701890DDE90C0130
:1053C000400A40EAC150490ACDE90C011898019001
:1053D0001020029040200390002004904FF4806041
:1053E000059001A9206801F04DF91021200000F07E
:1053F00049FD80465FFA88F8B8F1000F02D04046B8
:10540000C0B201E1BBF1020F02D31920029001E00A
:1054100018200290DDE90C01019001A9206801F03B
:1054200031F9BBF1020F05D31921200000F02AFD4C
:10543000804604E01821200000F024FD80465FFA39
:1054400088F8B8F1000F02D04046C0B2DCE01898EE
:1054500000FB0BF082465FF0FF300690189800FBCF
:105460000BF00790902008900020099000200A90EF
:1054700001200B9006A9206801F028F9BBF1020F6A
:1054800035D32068406B10F48D7F67D12068406B66
:105490004004F6D5BAEB050020281AD2BAEB050075
:1054A00010F0030F04D1BAEB05005FEA900904E0A5
:1054B000BAEB0500800810F10109002006004E45F6
:1054C000DFD23900206801F0CEF83F1D2D1D761C7B
:1054D000F5E700200600082E06D207EB86012068BB
:1054E00001F0C1F8761CF6E720372035C9E72068BF
:1054F000406B40F21A41084230D12068406B4004B2
:10550000F5D5BAEB050020281AD2BAEB050010F049
:10551000030F04D1BAEB05005FEA900904E0BAEB8F
:105520000500800810F10109002006004E45DED27A
:105530003900206801F097F83F1D2D1D761CF5E716
:1055400000200600082E06D207EB8601206801F035
:105550008AF8761CF6E720372035C8E72068406BCC
:10556000C0050FD5BBF1020F0CD3206A002805D06F
:10557000206A012802D0206A022803D1200000F00E
:1055800040FA80462068406B000707D50820216854
:105590008863042080464046C0B235E02068406BF6
:1055A000800707D502202168886302208046404694
:1055B000C0B229E02068406BC00607D510202168E2
:1055C0008863052080464046C0B21DE040F2FF508F
:1055D000216888636946200000F0DCFE80465FFA9F
:1055E00088F8B8F1000F0DD19DF80000072803D00E
:1055F0009DF80000062805D16946200000F0CAFE8B
:105600008046ECE74046C0B20FB0BDE8F08F2DE910
:10561000F003020000200023146A81F85640546A07
:10562000A1F85440946A240E2300C3F381140C7033
:10563000C3F383044C7013F003048C70946AC4F3B6
:1056400007442300CB70946AC4F3072423000B7132
:1056500092F8284004F0FF0423004B71D46A240E12
:1056600023001C01CC80D46AC4F307442300CC88F7
:10567000C3F303152C43CC8013F00F040C72D46ACF
:10568000C4F307242300C3F3C0144C72C3F3801483
:105690008C72C3F34014CC72C3F300140C73002457
:1056A0004C73146A002C02D0146A012C56D19C024F
:1056B00014F440640C6192F82C4023000C6954EA05
:1056C00083040C61146B240EE4B223000C69C3F351
:1056D00081152C430C61C3F3C2040C7513F007044D
:1056E0004C75146B240CE4B22300C3F342148C7584
:1056F000C3F38204CC755C0014F006040C76146BC2
:10570000240AE4B223000C7EC3F3C0152C430C76AC
:105710000C69641C0025C1E91245D1E91267012416
:105720000D7EAD1CAC40E517A4FB068904FB079970
:1057300005FB0699C1E91289012491F90850AC4092
:105740000C65D1E912670C6D0025A4FB068904FBEA
:10575000079905FB0699C1E9128932E0146A022C07
:105760002DD192F82C4023001C0414F47C140C61FD
:10577000146B240EE4B223000C6954EA03240C6178
:10578000146B240CE4B223000C691C430C61146BF1
:10579000240AE4B223000C690025661C75F1FF376A
:1057A0005FF400240025A4FB068904FB079905FB90
:1057B0000699C1E912894FF400740C6501E02924AF
:1057C0002000C3F380144C765C0014F07E048C76C9
:1057D00092F8304023008C7EC3F3C0152C438C76A6
:1057E00013F07F04CC76546B240EE4B22300C3F391
:1057F000C0140C77C3F341144C77C3F382048C7745
:105800009C0014F00C04CC77546B240CE4B22300FD
:10581000CC7FC3F381152C43CC77C3F3401481F8BC
:105820002040002481F8214013F0010481F8224037
:10583000546B240AE4B22300C3F3C01481F823405C
:10584000C3F3801481F82440C3F3401481F8254049
:10585000C3F3001481F82640C3F3810481F8274084
:1058600013F0030481F8284092F834402300C3F376
:10587000460481F82940012481F82A40946B240EC3
:10588000E4B2230081F82C30946B240CE4B22300A2
:105890001C02CC85946B240AE4B22300CC8D1C43FB
:1058A000CC8592F8384023001C060C63D46B240E80
:1058B000E4B223000C6B54EA03440C63D46B240C55
:1058C000E4B223000C6B54EA03240C63D46B240A67
:1058D000E4B223000C6B1C430C6392F83C402300A1
:1058E00081F83430146C240EE4B2230081F8353092
:1058F000146C240CE4B223001C068C63146C240A80
:10590000E4B223008C6B54EA03448C6392F8404069
:1059100023008C6B54EA03248C63546C240EE4B291
:1059200023008C6B1C438C63546C240CE4B2230066
:1059300091F83C40C3F303152C4381F83C401C0212
:1059400014F47064CC87546C240AE4B22300CC8F26
:105950001C43CC8792F844402300C3F3460481F8EB
:105960004040012481F84140C0B2BDE8F0037047D7
:1059700070B58AB005000E000024286A032804D1FF
:10598000272004002000C0B239E0286A002805D092
:10599000286A012802D0286A02282ED1B6F5805F35
:1059A00002D12720040010E0B6F5006F04D12800D2
:1059B00000F083FB040008E0002E04D1280000F072
:1059C000D5FB040001E026200400E4B2002C14D131
:1059D00068680390A8680490E8680590069668696E
:1059E0000790A869089003A983B06846182200F0C0
:1059F000F1FD0EBC286800F019FE2000C0B20AB00C
:105A000070BD30B585B004000025002000900C204A
:105A1000019040200290002003904FF48060049099
:105A20006946206800F02EFE0C21200000F02AFAC2
:105A300005002800C0B205B030BD38B5040004250B
:105A4000200000F00DF80500EDB2042D01D100207A
:105A500005E0EDB2FF2D01D1022000E0012032BDB2
:105A600010B582B00400002000906946200000F0CC
:105A70007AF9002801D0FF2003E00098400A10F0D6
:105A80000F0016BD30B587B0040000250120ADF829
:105A90000000206800F0F2FD002804D12520050058
:105AA0002800C0B280E0206A04282CD00020019099
:105AB00002200290C0200390002004904FF48060E8
:105AC000059001A9206800F0DDFD200000F07EFABD
:105AD0000500EDB2002D02D02800C0B264E0002124
