:020000040800F2
:10000000E824002095570508F1570508F55705081D
:1000100011540508F9570508FD57050800000000B0
:10002000000000000000000000000000015805086A
:100030000558050800000000095805081354050874
:100040000D580508115805081558050819580508D0
:100050001D580508215805081F540508255805088E
:10006000295805082D580508315805083558050840
:10007000395805083D5805087147050861470508C6
:1000800041580508455805084958050829540508E8
:10009000335405083D5405084D580508D557040844
:1000A000515805085558050847540508595805087A
:1000B0005D58050861580508655805086958050820
:1000C0006D580508515405085B540508715805081A
:1000D00075580508795805087D58050881580508A0
:1000E00085580508895805088D5805089158050850
:1000F000655405087354050895580508995805086E
:10010000815405089D580508A1580508A5580508FB
:10011000A9580508AD580508B1580508B55805088F
:10012000B9580508BD580508C1580508C55805083F
:10013000C9580508CD580508D1580508D5580508EF
:10014000D9580508DD580508E158050891540508F7
:10015000E5580508E9580508ED5805089B540508B9
:10016000F1580508F5580508F9580508FD5805081F
:10017000015905080559050809590508000000003E
:100180000D5905081159050815590508195905088B
:100190001D5905082159050825590508295905083B
:1001A000A5540508AF540508B95405082D5905088C
:1001B0003159050835590508395905083D590508CB
:1001C00041590508455905080000000000000000DD
:1001D000000000000000000000000000000000001F
:1001E000000000000000000000000000000000000F
:1001F00000000000000000000000000000000000FF
:1002000000000000000000000000000000000000EE
:1002100000000000000000000000000000000000DE
:1002200000000000000000000000000000000000CE
:1002300000000000000000000000000000000000BE
:1002400000000000000000000000000000000000AE
:10025000000000000000000000000000000000009E
:10026000007FE07FE07FE07FE07FE07FE07FE07F76
:10027000E07FE07FE07FE07FE03FE03FE03FE03F86
:10028000E03FE03FE03FE03FE03FE03FE03FE03F76
:10029000E03FE03FE03FE03FE03FE03FE03FE03F66
:1002A000E03FC03FC03FC03FC03FC03FC03FC03F36
:1002B000C03FC03FC03FC03FC03FC03FC01FC01F86
:1002C000C01FC01FC01FC0000000000000000000D1
:1002D0000000000000000000000F803FE07FE07F92
:1002E000F0FFF0FFF8FFF8FFF8FFF07FF07FF03F3E
:1002F000E01F80000000000000000000000000007F
:1003000000000000000000000000000000000000ED
:1003100000000000000000000000000000000000DD
:1003200000000000000000000000000000000000CD
:1003300000000000000000000000000000000000BD
:1003400000000000000000000000000000000000AD
:10035000000000000000000000000000000000009D
:1003600000000000000000FFC0FFC07FC07FC07F12
:10037000C07F807F807F807F807F807F807F807F45
:10038000807F807F807F807F807F807F807F807F75
:10039000807F807F807F807F807F807F807F807F65
:1003A000807F807F807F803F807F803F803F003FD5
:1003B000003F003F003F003F003F003F003F003F45
:1003C000003F003F003F003F003F003F003F000074
:1003D000000000000000000000000000000000001D
:1003E000000000000000000000000000000000000D
:1003F00000000000000000000000000000000000FD
:1004000000000000000000000000000000000000EC
:1004100000000000000000000000000000000000DC
:1004200000000000000000000000000000000000CC
:1004300000000000000000000000000000000000BC
:1004400000000000000000000000000000000000AC
:10045000000000000000000000000000000000009C
:10046000000000000000000000000000000000008C
:10047000000000000000000000000000000000007C
:10048000000000000000000000000000000000006C
:10049000000000000000000000000000000000005C
:1004A000000000000000000000000000000000004C
:1004B000000000000000000000000000000000003C
:1004C000000000000000000000000000000000002C
:1004D000000000000000000000000000000000001C
:1004E000000000000000000000000000000000000C
:1004F00000000000000000000000000000000000FC
:1005000000000000000000000000000000000000EB
:1005100000000000000000000000000000000000DB
:1005200000000000000000000000000000000000CB
:1005300000000000000000000000000000000000BB
:1005400000000000000000000000000000000000AB
:10055000000000000000000000000000000000009B
:10056000000000000000000000000000000000008B
:100570000000000001FC007E000001FC007E000085
:1005800001FC007E000001F8007E000001F800FE82
:10059000000001F800FE000001F800FC000001F876
:1005A00000FC000003F800FC000003F800FC000061
:1005B00003F000FC000003F001FC000003F001FC6C
:1005C000000003F001FC000003F001F8000007F058
:1005D00001F8000007F001F8000007E001F8000052
:1005E00007E001F8000007E003F8000007E003F867
:1005F000001FFFFFFFFFF81FFFFFFFFFF81FFFFFB8
:10060000FFFFF81FFFFFFFFFF81FFFFFFFFFF81FAF
:10061000FFFFFFFFF8000FC007F000000FC007E06A
:1006200000000FC007E000001FC007E000001FC06F
:1006300007E000001F8007E000001F800FE00000BF
:100640001F800FE000001F800FE000001F800FC020
:1006500000003F800FC000003F800FC000003F80BF
:100660000FC000003F000FC000003F001FC000008F
:100670003F001FC000FFFFFFFFFFE0FFFFFFFFFF86
:10068000E0FFFFFFFFFFE0FFFFFFFFFFE0FFFFFFD7
:10069000FFFFE0FFFFFFFFFFE0007E003F80000064
:1006A0007E003F0000007E003F000000FE003F0093
:1006B0000000FE003F000000FC003F000000FC00C6
:1006C0007F000000FC007F000000FC007F000000B5
:1006D000FC007E000001FC007E000001FC007E00AA
:1006E0000001FC007E000001F800FE000001F8009F
:1006F000FE000001F800FE000001F800FE0000010D
:10070000F800FC000003F800FC000003F800FC0007
:100710000003F800FC0000000000000000000000E2
:1007200000000000000000000000000000000000C9
:1007300000000000000000000000000000000000B9
:1007400000000000000000000000000000000000A9
:100750000000000000000000000000000000000099
:100760000000000000000000000000000000000089
:100770000000000000000000000000000000000079
:100780000000000000000000000000000000000069
:100790000000000000000000000000000000000059
:1007A0000000000000000000000000000000000049
:1007B0000000000000000000000000000000000039
:1007C0000000000000000000000000000000000029
:1007D0000000000000000000000000000000000019
:1007E0000000000000000000000000000000000009
:1007F00000007F000000007F000000007F0000007C
:10080000007F000000007F000000007F000000006B
:100810007F000000007F000000007F000000007FDC
:10082000000000007F00000001FFFC00000FFFFF40
:1008300080003FFFFFF000FFFFFFFC01FFFFFFF81C
:1008400003FFFFFFF807FFFFFFF00FFF800FF01F10
:10085000FC0001F01FF80000603FF00000003FE0E6
:100860000000003FE00000007FC00000007FC000EB
:1008700000007FC00000007FC00000007FC00000BB
:10088000007FC00000007FE00000007FE00000006B
:100890007FF00000003FF80000003FFC0000001F58
:1008A000FF0000001FFF8000000FFFE0000007FFB7
:1008B000FC000003FFFF000001FFFFC00000FFFF7E
:1008C000F000003FFFFC00001FFFFF000007FFFFDC
:1008D000800001FFFFC000003FFFE000000FFFF0BD
:1008E000000003FFF8000000FFFC0000007FFC0098
:1008F00000001FFE0000000FFE0000000FFE0000C1
:100900000007FF00000003FF00000003FF000000DD
:1009100003FF00000001FF00000001FF00000001D4
:10092000FF00000001FF00000003FF00000003FEC5
:1009300000000007FE00000007FE3000000FFC3C36
:1009400000001FFC3F00007FF87FF001FFF07FFFF9
:10095000FFFFF0FFFFFFFFE0FFFFFFFFC07FFFFF94
:10096000FF001FFFFFFE0007FFFFF800007FFFC032
:10097000000000FE00000000FE00000000FE00007D
:100980000000FE00000000FE00000000FE0000006D
:1009900000FE00000000FE00000000FE000000005D
:1009A000FE00000000FE000000000000000000004B
:1009B0000000000000000000000000000000000037
:1009C0000000000000000000000000000000000027
:1009D0000000000000000000000000000000000017
:1009E0000000000000000000000000000000000007
:1009F00000000000000000000000000000000000F7
:100A000000000000000000000000000000000000E6
:100A100000000000000000000000000000000000D6
:100A200000000000000000000000000000000000C6
:100A300000000000000000000000000000000000B6
:100A400000000000000000000000000000000000A6
:100A50000000000000000000000000000000000096
:100A60000000000000000000000000000000000086
:100A70000000000000000000000000000000000076
:100A80000000000000000000000000000000000066
:100A90000000000000000000000000000000000056
:100AA0000000000000000000000000000000000046
:100AB0000000000000000000000000000000000036
:100AC0000003F0000000007C0000001FFE0000009A
:100AD00000FC0000007FFF80000001F8000000FF24
:100AE000FFE0000001F8000003FFFFF0000003F04A
:100AF000000007FFFFF8000003F0000007FC0FF8FC
:100B0000000007E000000FF007FC000007E0000015
:100B10001FE001FC00000FC000001FE001FE00000C
:100B20001F8000003FC000FE00001F8000003F80CB
:100B300000FF00003F0000003F80007F00003F00FA
:100B400000007F80007F00007E0000007F00007FAB
:100B500000007E0000007F00007F8000FC0000009D
:100B60007F00007F8001F8000000FF00003F80014F
:100B7000F8000000FF00003F8003F0000000FF00CD
:100B8000003F8003F0000000FF00003F8007E0000E
:100B90000000FF00003F8007E0000000FF00003F72
:100BA000800FC0000000FF00003F801F8000000099
:100BB000FF00003F801F80000000FF00003F803FDB
:100BC000000000007F00007F803F000000007F00E9
:100BD000007F807E000000007F00007F007E00001C
:100BE00000007F80007F00FC003FC0007F80007F0E
:100BF00001F800FFF8003F8000FE01F803FFFE004F
:100C00003FC000FE03F007FFFF003FC001FE03F0FE
:100C10000FFFFF801FE001FC07E01FFFFFC00FF088
:100C200003FC07E03FE03FE00FFC0FF80FC07F80C0
:100C30001FE007FFFFF01F807F000FF003FFFFE0C2
:100C40001F80FF0007F001FFFFC03F00FE0007F814
:100C500000FFFF803F01FE0003F8003FFE007E0121
:100C6000FC0003F80007F0007E01FC0003FC00001C
:100C70000000FC03FC0003FC00000000FC03F80083
:100C800001FC00000001F803F80001FC0000000373
:100C9000F003F80001FC00000003F003F80001FC81
:100CA00000000007E003F80001FC00000007E0037B
:100CB000F80001FC0000000FC003F80001FC000078
:100CC000000FC003F80001FC0000001F8003F800C3
:100CD00001FC0000003F0003F80001FC0000003FA1
:100CE0000003F80001FC0000007E0003F80001FC96
:100CF0000000007E0003F80001FC000000FC00037F
:100D0000FC0003FC000000FC0003FC0003F80000F2
:100D100001F80001FC0003F8000003F00001FE00F0
:100D200003F8000003F00001FE0007F0000007E0F8
:100D30000000FF0007F0000007E00000FF800FE068
:100D400000000FC000007FC01FE000000FC00000C7
:100D50003FE07FC000001F8000003FFFFF800000D9
:100D60003F0000001FFFFF0000003F00000007FFE2
:100D7000FE0000007E00000003FFFC0000007E007B
:100D8000000000FFF0000000FC000000001F8000D9
:100D90000000000000000000000000000000000053
:100DA0000000000000000000000000000000000043
:100DB0000000000000000000000000000000000033
:100DC0000000000000000000000000000000000023
:100DD0000000000000000000000000000000000013
:100DE0000000000000000000000000000000000003
:100DF00000000000000000000000000000000000F3
:100E000000000000000000000000000000000000E2
:100E100000000000000000000000000000000000D2
:100E200000000000000000000000000000000000C2
:100E300000000000000000000000000000000000B2
:100E400000000000000000000000000000000000A2
:100E50000000000000000000000000000000000092
:100E60000000000000000000000000000000000082
:100E70000000000000000000000000000000000072
:100E80000000000000000000000000000000000062
:100E90000000000000000000000000000000000052
:100EA0000000000000000000000000000000000042
:100EB0000000000000000000000000000000000032
:100EC0000000000000000000000000000000000022
:100ED0000000000000000000000000000000000012
:100EE0000000000000000000000000000000000002
:100EF00000000000000000000000000000000000F2
:100F000000000000000000000000000000000000E1
:100F1000000000000000000000000000000007FFCB
:100F20000000000000003FFFE00000000000FFFFA5
:100F3000F00000000001FFFFFC0000000003FFFFC5
:100F4000FE0000000007FFFFFF000000000FFE078B
:100F5000FF000000001FF801FF800000001FF000EC
:100F6000FF800000003FE0007FC00000003FC000A5
:100F70007FC00000007FC0003FC00000007FC000B5
:100F80003FC00000007F80003FE00000007F800045
:100F90003FE0000000FF80003FE0000000FF800015
:100FA0003FE0000000FF80003FC0000000FF800025
:100FB0003FC0000000FF80003FC00000007FC00075
:100FC0007FC00000007FC0007F800000007FC00065
:100FD000FF800000007FE001FF000000003FE00311
:100FE000FE000000003FF007FE000000001FF01FA1
:100FF000FC000000001FF83FF8000000000FFCFF9D
:10100000F0000000000FFDFFE00000000007FFFF00
:10101000800000000003FFFF000000000003FFFC51
:10102000000000000007FFF000000000000FFFE0DC
:1010300000001FF0003FFFF000001FF0007FFFF0F6
:1010400000001FE000FFFFF800001FE001FFDFFCD1
:1010500000003FE003FF0FFE00003FE007FE07FF38
:1010600000003FE00FFC03FF80003FC01FF801FFBE
:10107000C0003FC01FF000FFE0007FC03FF000FF56
:10108000E0007F803FE0007FF0007F803FE0003F96
:10109000F800FF807FC0001FFC00FF007FC0000F32
:1010A000FE00FF007FC00007FF01FF007FC00003BC
:1010B000FF81FE00FF800001FFC3FE00FF800000F3
:1010C000FFC3FC00FF800000FFE7FC00FFC0000042
:1010D0007FF7F800FFC000003FFFF800FFC00000EE
:1010E0001FFFF0007FC000000FFFF0007FE0000056
:1010F00007FFE0007FE0000003FFC0007FF000007A
:1011000001FFC0003FF0000003FFE0003FF80000D7
:1011100007FFF0001FFC00000FFFF8001FFE00009B
:101120003FFFFC000FFF8000FFFFFC0007FFF00700
:10113000FFEFFE0003FFFFFFFFC7FF0003FFFFFFFE
:10114000FF83FF8000FFFFFFFE01FFC0007FFFFF66
:10115000F800FFE0001FFFFFE0007FF00007FFFF47
:1011600080003FF80000FFF80000000000000000D1
:10117000000000000000000000000000000000006F
:10118000000000000000000000000000000000005F
:10119000000000000000000000000000000000004F
:1011A000000000000000000000000000000000003F
:1011B000000000000000000000000000000000002F
:1011C000000000000000000000000000000000001F
:1011D000000000000000000000000000000000000F
:1011E00000000000000000000000000000000000FF
:1011F00000000000000000000000000000000000EF
:1012000000000000000000000000000000000000DE
:1012100000000000000000000000000000000000CE
:1012200000000000000000000000000000000000BE
:1012300000000000000000000000000000000000AE
:10124000000000000000000000000000000000009E
:10125000000000000000000000000000FFC07FC090
:101260007FC07F807F807F807F807F807F807F8046
:101270007F807F807F807F807F807F803F803F80F6
:101280003F003F003F003F003F003F003F003F0066
:10129000000000000000000000000000000000004E
:1012A000000000000000000000000000000000003E
:1012B000000000000000000000000000000000002E
:1012C000000000000000000000000000000000001E
:1012D000000000000000000000000000000000000E
:1012E00000000000000000000000000000000000FE
:1012F00000000000000000000000000000000000EE
:1013000000000000000000000000000000000000DD
:1013100000000000000000000000000000000000CD
:1013200000000000000000000000000000000000BD
:1013300000000000000000000000000000000000AD
:10134000000000000000000000000000000000009D
:101350000000000000000007F80007F0000FE000A8
:101360001FE0001FC0003F80007F80007F0000FF63
:101370000000FE0001FE0001FC0003FC0003F80079
:1013800007F80007F80007F0000FF0000FF0000F5B
:10139000E0001FE0001FE0001FC0003FC0003FC092
:1013A000003FC0003F80007F80007F80007F800082
:1013B0007F80007F80007F0000FF0000FF0000FFB3
:1013C0000000FF0000FF0000FF0000FF0000FF0022
:1013D00000FF0000FF0000FF0000FF0000FF000012
:1013E000FF0000FF0000FF0000FF0000FF0000FF03
:1013F0000000FF0000FF00007F00007F80007F8072
:10140000007F80007F80007F80003FC0003FC000E1
:101410003FC0003FC0001FC0001FE0001FE0000FE2
:10142000E0000FF0000FF00007F00007F80007F8E9
:101430000003FC0003FC0001FE0001FE0000FE00B2
:1014400000FF00007F80003F80003FC0001FC00001
:101450001FE0000FE00007F00003F80000000000AC
:10146000000000000000000000000000000000007C
:10147000000000000000000000000000000000006C
:10148000000000000000000000000000000000005C
:10149000000000000000000000000000000000004C
:1014A000000000000000000000000000000000003C
:1014B00000000000007F00007F80003F80001FC010
:1014C000001FE0000FE0000FF00007F80007F80031
:1014D00003FC0003FC0001FE0001FE0000FF000011
:1014E000FF00007F00007F80007F80003FC0003F42
:1014F000C0003FC0001FC0001FE0001FE0001FE051
:10150000000FF0000FF0000FF0000FF0000FF000E0
:1015100007F00007F80007F80007F80007F80007D1
:10152000F80007F80007F80007F80007F80007F8C8
:101530000007F80007F80007F80007F80007F800B0
:1015400007F80007F80007F80007F80007F8000799
:10155000F80007F80007F80007F80007F8000FF098
:10156000000FF0000FF0000FF0000FF0000FE00090
:101570001FE0001FE0001FE0003FC0003FC0003F31
:10158000C0003F80007F80007F8000FF0000FF00E0
:1015900000FE0001FE0001FC0003FC0003F8000750
:1015A000F80007F0000FF0000FE0001FC0003FC080
:1015B000003F80007F0000FF0000000000000000EE
:1015C000000000000000000000000000000000001B
:1015D000000000000000000000000000000000000B
:1015E00000000000000000000000000000000000FB
:1015F00000000000000000000000000000000000EB
:1016000000000000000000000000000000000000DA
:1016100000000000000000000000000000000000CA
:1016200000000000000000000000000000000000BA
:1016300000000000000000000000180060000078BA
:1016400000780000FC007E0003FC00FF0001FE00AB
:10165000FE0001FE01FE0000FE01FC00007F03F819
:1016600000003F03F000003F83F000001F87E00010
:10167000000FC7C0000007CF80000003EF8000000C
:1016800003FF0000FC01FE007CFFF8FC7FFCFFFF75
:10169000FFFFFCFFFFFFFFFCFFFFFFFFFCFFF0FC75
:1016A0007FFCF801FE007C0003FF00000003CF80F8
:1016B000000007CF8000000F87C000001F87E000F8
:1016C000003F07F000003F03F800007E03F8000031
:1016D000FE01FC0001FE01FE0003FC00FF0003FC14
:1016E00000FF0000F800FC0000780070000010000F
:1016F000600000000000000000000000000000008A
:1017000000000000000000000000000000000000D9
:1017100000000000000000000000000000000000C9
:1017200000000000000000000000000000000000B9
:1017300000000000000000000000000000000000A9
:1019100000000000000000FE000000000000FE00CB
:101920000000000000FE000000000000FE000000BB
:10193000000000FE000000000000FE0000000000AB
:1019400000FE000000000000FE000000000000FE9D
:10195000000000000000FE000000000000FE00008B
:1019600000000000FE000000000000FE000000007B
:101970000000FE000000000000FE0000000000006B
:10198000FE000000000000FE000000000000FE005D
:101990000000000000FE000000000000FE0000004B
:1019A000000000FE000000000000FE00000000003B
:1019B00000FE000000000000FE000000000000FE2D
:1019C000000000FFFFFFFFFFFFFFFFFFFFFFFFFF24
:1019D000FFFFFFFFFFFFFFFFFFFFFFFFFFFFFFFF17
:1019E000FFFFFFFFFFFFFFFFFFFFFFFFFFFFFFFF07
:1019F000FFFFFFFF000000FE000000000000FE00EF
:101A00000000000000FE000000000000FE000000DA
:101A1000000000FE000000000000FE0000000000CA
:101A200000FE000000000000FE000000000000FEBC
:101A3000000000000000FE000000000000FE0000AA
:101A400000000000FE000000000000FE000000009A
:101A50000000FE000000000000FE0000000000008A
:101A6000FE000000000000FE000000000000FE007C
:101A70000000000000FE000000000000FE0000006A
:101A8000000000FE000000000000FE00000000005A
:101A900000FE000000000000FE000000000000FE4C
:101AA0000000000000000000000000000000000036
:101AB0000000000000000000000000000000000026
:101AC0000000000000000000000000000000000016
:101AD0000000000000000000000000000000000006
:101AE00000000000000000000000000000000000F6
:101AF00000000000000000000000000000000000E6
:101B000000000000000000000000000000000000D5
:101B100000000000000000000000000000000000C5
:101B200000000000000000000000000000000000B5
:101B300000000000000000000000000000000000A5
:101B40000000000000000000000000000000000095
:101B50000000000000000000000000000000000085
:101B60000000000000000000000000000000000075
:101B70000000000000000000000000000000000065
:101B80000000000000000000000000000000000055
:101B90000000000000000000000000000000000045
:101BA0000000000000000000000000000000000035
:101BB0000000000000000000000000000000000025
:101BC0000000000000000000000000000000000015
:101BD0000000000000000000000000000000000005
:101BE00000000000000000000000000000000000F5
:101BF0000000000000000000000001FF03FF03FFE1
:101C000003FE03FE07FE07FC07FC07FC07F80FF8BE
:101C10000FF80FF00FF01FF01FE01FE01FC03FC0D4
:101C20003F803F807F807F007E00FE00FC00000040
:101C300000000000000000000000000000000000A4
:101C40000000000000000000000000000000000094
:101C50000000000000000000000000000000000084
:101C60000000000000000000000000000000000074
:101C70000000000000000000000000000000000064
:101C80000000000000000000000000000000000054
:101C90000000000000000000000000000000000044
:101CA0000000000000000000000000000000000034
:101CB0000000000000000000000000000000000024
:101CC0000000000000000000000000000000000014
:101CD0000000000000000000000000000000000004
:101CE00000000000000000000000000000000000F4
:101CF00000000000000000000000000000000000E4
:101D000000000000000000000000000000000000D3
:101D100000000000000000000000000000000000C3
:101D200000000000000000000000000000000000B3
:101D30000000FFFFFFE0FFFFFFE0FFFFFFE0FFFF0E
:101D4000FFE0FFFFFFE0FFFFFFE0FFFFFFE000001D
:101D50000000000000000000000000000000000083
:101D60000000000000000000000000000000000073
:101D70000000000000000000000000000000000063
:101D80000000000000000000000000000000000053
:101D90000000000000000000000000000000000043
:101DA0000000000000000000000000000000000033
:101DB0000000000000000000000000000000000023
:101DC0000000000000000000000000000000000013
:101DD0000000000000000000000000000000000003
:101DE00000000000000000000000000000000000F3
:101DF00000000000000000000000000000000000E3
:101E000000000000000000000000000000000000D2
:101E100000000000000000000000000000000000C2
:101E200000000000000000000000000000000000B2
:101E300000000000000000000000000000000000A2
:101E40000000000000000000000000000000000092
:101E50000000000000000000000000000000000082
:101E60000000000000000000000000000000000072
:101E70000000000000000000000000000000000062
:101E80000000000000000000000000000000000052
:101E90000000000000000000000000000000000042
:101EA0000000000000000000000000000000000032
:101EB000000000000000000000001F807FC07FE0E5
:101EC000FFF0FFF0FFF0FFF0FFF0FFF0FFF07FE02A
:101ED0003FC01F8000000000000000000000000064
:101EE00000000000000000000000000000000000F2
:101EF00000000000000000000000000000000000E2
:101F000000000000000000000000000000000000D1
:101F100000000000000000000000000000000000C1
:101F200000000000000000000000000000000000B1
:101F300000000000000000000000000000000000A1
:101F40000000000000000000000000000000000091
:101F50000000000000000000000000000000000081
:101F600007F800000007F000000007F00000000F75
:101F7000F00000000FE00000001FE00000001FC0A4
:101F80000000001FC00000003FC00000003F8000B4
:101F900000007F800000007F000000007F00000044
:101FA00000FF00000000FE00000000FE0000000135
:101FB000FE00000001FC00000003FC00000003F82C
:101FC00000000003F800000007F800000007F00020
:101FD000000007F00000000FE00000000FE000002C
:101FE000001FE00000001FC00000001FC000000034
:101FF0003FC00000003F800000007F800000007FA5
:10200000000000007F00000000FF00000000FE0054
:10201000000000FE00000001FC00000001FC0000C8
:102020000003FC00000003F800000003F8000000BB
:1020300007F000000007F00000000FF00000000FA4
:10204000E00000000FE00000001FE00000001FC0E3
:102050000000001FC00000003F800000003F800023
:1020600000007F800000007F000000007F00000073
:1020700000FE00000000FE00000001FE0000000164
:10208000FC00000001FC00000003FC00000003F85D
:1020900000000003F800000007F000000007F00057
:1020A00000000FF00000000FE00000000FE0000053
:1020B000001FC00000001FC00000003FC000000063
:1020C0003F800000003F800000007F800000007F14
:1020D000000000007F00000000FE00000000000083
:1020E00000000000000000000000000000000000F0
:1020F00000000000000000000000000000000000E0
:1021000000000000000000000000000000000000CF
:1021100000000000000000000000000000000000BF
:1021200000000000000000000000000000000000AF
:10213000000000000000000000000000000000009F
:10214000000000000000000000000000000000008F
:10215000000000000000000000000000000000007F
:10216000000000000000000000000000000000006F
:10217000000000000000000000000000000000005F
:10218000000000000000000000000000000000004F
:10219000000000000000000000000000000000003F
:1021A000000000000000000000000000000000002F
:1021B000000000000000000000000000000000001F
:1021C000000000000007F0000000007FFE0000009B
:1021D00003FFFFC0000007FFFFE000001FFFFFF844
:1021E00000003FFFFFFC00007FFFFFFE0000FFFF3D
:1021F000FFFF0001FFE00FFF0001FFC003FF8003AE
:10220000FF8001FFC007FF0000FFC007FE00007F46
:10221000E00FFC00007FE00FFC00003FF01FF80023
:10222000003FF01FF800001FF01FF000001FF83FF4
:10223000F000000FF83FF000000FF83FE000000F43
:10224000FC7FE000000FFC7FE0000007FC7FC00087
:102250000007FC7FC0000007FC7FC0000007FE7F76
:10226000C0000007FEFFC0000007FEFFC00000071F
:10227000FEFFC0000007FEFFC0000007FEFF800059
:102280000003FEFF80000003FEFF80000003FEFF4E
:1022900080000003FEFF80000003FEFF80000003BB
:1022A000FEFF80000003FEFF80000003FEFF8000B1
:1022B0000003FEFF80000003FEFFC0000007FEFFDA
:1022C000C0000007FEFFC0000007FEFFC0000007BF
:1022D000FEFFC0000007FE7FC0000007FC7FC000BB
:1022E0000007FC7FC0000007FC7FE000000FFC7FC0
:1022F000E000000FFC3FE000000FF83FE000000F9F
:10230000F83FF000001FF83FF000001FF81FF0003A
:10231000001FF01FF800003FF00FF800003FF00F23
:10232000FC00007FE00FFC00007FE007FE0000FFE4
:10233000C007FF0001FFC003FF8003FF8001FFC053
:1023400007FF0000FFF83FFF0000FFFFFFFE000057
:102350007FFFFFFC00003FFFFFF800001FFFFFE0D2
:10236000000007FFFFC0000001FFFF000000007F2A
:10237000F800000000000000000000000000000065
:10238000000000000000000000000000000000004D
:10239000000000000000000000000000000000003D
:1023A000000000000000000000000000000000002D
:1023B000000000000000000000000000000000001D
:1023C000000000000000000000000000000000000D
:1023D00000000000000000000000000000000000FD
:1023E00000000000000000000000000000000000ED
:1023F00000000000000000000000000000000000DD
:1024000000000000000000000000000000000000CC
:1024100000000000000000000000000000000000BC
:1024200000000000000000000000000000000000AC
:10243000000000000000000000000000000000009C
:1024400000000000000000000000000001FE000786
:10245000FE001FFE003FFE00FFFE03FFFE0FFFFE1B
:102460003FFFFEFFFFFEFFFFFE7FF3FE7FC3FE7F09
:1024700003FE7C03FE3003FE0003FE0003FE0003A8
:10248000FE0003FE0003FE0003FE0003FE0003FE49
:102490000003FE0003FE0003FE0003FE0003FE0037
:1024A00003FE0003FE0003FE0003FE0003FE000324
:1024B000FE0003FE0003FE0003FE0003FE0003FE19
:1024C0000003FE0003FE0003FE0003FE0003FE0007
:1024D00003FE0003FE0003FE0003FE0003FE0003F4
:1024E000FE0003FE0003FE0003FE0003FE0003FEE9
:1024F0000003FE0003FE0003FE0003FE0003FE00D7
:1025000003FE0003FE0003FE0003FE0003FE0003C3
:10251000FE0003FE0003FE0003FE0003FE000000B9
:1025200000000000000000000000000000000000AB
:10253000000000000000000000000000000000009B
:10254000000000000000000000000000000000008B
:10255000000000000000000000000000000000007B
:10256000000000000000000000000000000000006B
:10257000000000000000000000000000000000005B
:10258000000000000000000000000000000000004B
:10259000000000000000000000000000000000003B
:1025A000000000000000000000000000000000002B
:1025B000000000000000000000000000000000001B
:1025C000000000000000000000000000000000000B
:1025D00000000000000000000000000000000000FB
:1025E00000007F800000000FFFFC0000007FFFFF65
:1025F000000001FFFFFFC00003FFFFFFE0000FFF2F
:10260000FFFFF0001FFFFFFFF8003FFFFFFFFC0090
:102610003FFE00FFFE001FF0001FFF001FC000076D
:10262000FF000F000003FF800E000001FF80080084
:102630000001FF8000000000FFC000000000FFC09C
:1026400000000000FFC0000000007FC0000000008C
:102650007FC0000000007FC0000000007FC00000BD
:1026600000007FC0000000007FC0000000007FC0AD
:10267000000000007FC0000000007FC000000000DC
:10268000FFC000000000FFC000000000FF8000004D
:102690000001FF8000000001FF0000000001FF00BA
:1026A00000000003FF0000000007FE00000000071C
:1026B000FE000000000FFC000000000FF80000000A
:1026C000001FF8000000003FF0000000007FE00065
:1026D000000000FFE000000001FFC000000001FF5B
:1026E0008000000003FF0000000007FE0000000063
:1026F0000FFE000000001FFC000000003FF800007B
:1027000000007FF000000000FFE000000001FFC0BB
:1027100000000003FF8000000007FF000000000F22
:10272000FE000000001FFC000000003FF800000059
:10273000007FF000000000FFE000000001FFC0008B
:10274000000003FF8000000007FF000000000FFEF4
:10275000000000001FFC000000003FFFFFFFFFF033
:102760007FFFFFFFFFF0FFFFFFFFFFF0FFFFFFFF17
:10277000FFF0FFFFFFFFFFF0FFFFFFFFFFF0FFFF96
:10278000FFFFFFF0FFFFFFFFFFF000000000000071
:102790000000000000000000000000000000000039
:1027A0000000000000000000000000000000000029
:1027B0000000000000000000000000000000000019
:1027C0000000000000000000000000000000000009
:1027D00000000000000000000000000000000000F9
:1027E00000000000000000000000000000000000E9
:1027F00000000000000000000000000000000000D9
:1028000000000000000000000000000000000000C8
:1028100000000000000000000000000000000000B8
:1028200000000000000000000000000000000000A8
:102830000000000000000000000000000000000098
:102840000000000000000000000000000000000088
:102850000000000000000000000000000000000078
:102860000000000000000000000000000000000068
:102870000000000000000000000000000000000058
:102880000000000000000000000000000000000048
:102890000000000000000000000000000000000038
:1028A000FF000000001FFFF8000000FFFFFE000017
:1028B00003FFFFFF80000FFFFFFFC0003FFFFFFF90
:1028C000F0003FFFFFFFF8001FFFFFFFF8001FF8B9
:1028D00001FFFC001FC0003FFE000F00001FFE00B4
:1028E0000C00000FFE0000000007FF0000000003C6
:1028F000FF0000000003FF0000000003FF000000D5
:102900000001FF0000000001FF0000000001FF00C7
:1029100000000001FF0000000001FF0000000003B4
:10292000FF0000000003FE0000000007FE000000A2
:102930000007FE000000000FFC000000001FF80070
:102940000000007FF800000001FFF000000007FF1A
:10295000C000003FFFFF8000003FFFFE0000003F7F
:10296000FFFC0000003FFFE00000003FFFFE000012
:10297000003FFFFF8000003FFFFFE00000001FFF5F
:10298000F000000000FFF8000000003FFC00000025
:10299000000FFE0000000007FF0000000003FF80A2
:1029A00000000001FF8000000001FFC000000000E7
:1029B000FFC000000000FFC0000000007FE000003A
:1029C00000007FE0000000007FE0000000007FE0EA
:1029D000000000007FE0000000007FE00000000039
:1029E0007FE0000000007FE0000000007FE00000CA
:1029F0000000FFC000000000FFC000000001FFC099
:102A000000000003FF8000000007FF803000000F7F
:102A1000FF007E00001FFF007FC0007FFE007FFEE2
:102A20000FFFFC00FFFFFFFFF800FFFFFFFFF000BC
:102A3000FFFFFFFFE0007FFFFFFF80001FFFFFFEA3
:102A4000000003FFFFF80000003FFF8000000000CF
:102A50000000000000000000000000000000000076
:102A60000000000000000000000000000000000066
:102A70000000000000000000000000000000000056
:102A80000000000000000000000000000000000046
:102A90000000000000000000000000000000000036
:102AA0000000000000000000000000000000000026
:102AB0000000000000000000000000000000000016
:102AC0000000000000000000000000000000000006
:102AD00000000000000000000000000000000000F6
:102AE00000000000000000000000000000000000E6
:102AF00000000000000000000000000000000000D6
:102B000000000000000000000000000000000000C5
:102B100000000000000000000000000000000000B5
:102B200000000000000000000000000000000000A5
:102B30000000000000000000000000000000000095
:102B40000000000000000000000000000000000085
:102B50000000000000000000000000000000000075
:102B60000000000000000000000000000000000065
:102B700000000000000000000001FF8000000000D5
:102B800003FF800000000007FF800000000007FF37
:102B900080000000000FFF80000000001FFF800089
:102BA0000000003FFF80000000003FFF80000000A9
:102BB000007FFF8000000000FFFF8000000000FE9B
:102BC000FF8000000001FEFF8000000003FCFF808A
:102BD00000000003FCFF8000000007F8FF800000F9
:102BE000000FF8FF800000001FF0FF800000001FB2
:102BF000F0FF800000003FE0FF800000007FC0FF8A
:102C0000800000007FC0FF80000000FF80FF800088
:102C10000001FF00FF80000001FE00FF80000003B4
:102C2000FE00FF80000007FC00FF8000000FF8009E
:102C3000FF8000000FF800FF8000001FF000FF8001
:102C400000003FE000FF8000003FC000FF80000068
:102C50007FC000FF800000FF8000FF800000FF00B9
:102C600000FF800001FF0000FF800003FE0000FF66
:102C7000800007FC0000FF800007F80000FF8000D4
:102C80000FF80000FF80001FF00000FF80001FE031
:102C90000000FF80003FE00000FF80007FC00000D8
:102CA000FF80007F800000FF8000FFFFFFFFFFFF2D
:102CB000E0FFFFFFFFFFFFE0FFFFFFFFFFFFE0FF81
:102CC000FFFFFFFFFFE0FFFFFFFFFFFFE0FFFFFF52
:102CD000FFFFFFE0FFFFFFFFFFFFE000000000FF3E
:102CE000800000000000FF800000000000FF800066
:102CF00000000000FF800000000000FF80000000D6
:102D00000000FF800000000000FF800000000000C5
:102D1000FF800000000000FF800000000000FF8036
:102D20000000000000FF800000000000FF800000A5
:102D3000000000FF800000000000FF800000000095
:102D400000FF800000000000FF800000000000FF86
:102D5000800000000000FF800000000000FF8000F5
:102D60000000000000000000000000000000000063
:102D70000000000000000000000000000000000053
:102D80000000000000000000000000000000000043
:102D90000000000000000000000000000000000033
:102DA0000000000000000000000000000000000023
:102DB0000000000000000000000000000000000013
:102DC0000000000000000000000000000000000003
:102DD00000000000000000000000000000000000F3
:102DE00000000000000000000000000000000000E3
:102DF00000000000000000000000000000000000D3
:102E000000000000000000000000000000000000C2
:102E100000000000000000000000000000000000B2
:102E200000000000000000000000000000000000A2
:102E30000000000000000000000000000000000092
:102E40000000000000000000000000000000000082
:102E50000000000000000000000000000000000072
:102E60000000000000000000000000000000000062
:102E70000000000000000000000000000000000052
:102E80000000000000000000000000000000000042
:102E9000000000000000FFFFFFFF8000FFFFFFFFBA
:102EA0008000FFFFFFFF8000FFFFFFFF8000FFFFAC
:102EB000FFFF8001FFFFFFFF8001FFFFFFFF800199
:102EC000FFFFFFFF8001FE0000000001FE00000088
:102ED0000001FC0000000001FC0000000003FC00F9
:102EE00000000003FC0000000003FC0000000003E1
:102EF000FC0000000003FC0000000003F8000000DC
:102F00000003F80000000007F80000000007F800C8
:102F100000000007F80000000007F80000000007AC
:102F2000F80000000007F00000000007F0000000BB
:102F30000007FFFF8000000FFFFFF000000FFFFF02
:102F4000FE00000FFFFFFF80000FFFFFFFC0000F1C
:102F5000FFFFFFF0000FFFFFFFF8000C001FFFFC5A
:102F600000000001FFFE000000003FFE0000000026
:102F70001FFF0000000007FF8000000003FF80002B
:102F8000000003FF8000000001FFC000000000FF00
:102F9000C000000000FFC0000000007FC000000073
:102FA000007FE0000000007FE0000000007FE00004
:102FB0000000007FE0000000007FE0000000007FD4
:102FC000E0000000007FE0000000007FC000000083
:102FD000007FC000000000FFC000000000FFC00034
:102FE000000000FF8000000001FF8000000003FFE0
:102FF0008000000007FF000000000FFE002000001E
:103000001FFE007C00007FFC007F8001FFF8007F36
:10301000FE1FFFF000FFFFFFFFE000FFFFFFFFC00C
:1030200000FFFFFFFF8000FFFFFFFE00003FFFFFEC
:10303000F8000007FFFFE00000007FFF0000000035
:103040000000000000000000000000000000000080
:103050000000000000000000000000000000000070
:103060000000000000000000000000000000000060
:103070000000000000000000000000000000000050
:103080000000000000000000000000000000000040
:103090000000000000000000000000000000000030
:1030A0000000000000000000000000000000000020
:1030B0000000000000000000000000000000000010
:1030C0000000000000000000000000000000000000
:1030D00000000000000000000000000000000000F0
:1030E00000000000000000000000000000000000E0
:1030F00000000000000000000000000000000000D0
:1031000000000000000000000000000000000000BF
:1031100000000000000000000000000000000000AF
:10312000000000000000000000000000000000009F
:10313000000000000000000000000000000000008F
:10314000000000000000000000000000000000007F
:1031500000078000000003FF800000003FFF8000A8
:103160000001FFFF80000007FFFF8000001FFFFF3E
:103170008000007FFFFF800000FFFFFF800003FF53
:10318000FFC0000007FFF80000000FFFC0000000B4
:103190001FFF000000003FFC000000007FF800005F
:1031A0000000FFF000000000FFC000000001FF80F1
:1031B00000000003FF0000000003FE000000000705
:1031C000FE0000000007FC000000000FF8000000F7
:1031D000000FF8000000001FF0000000001FF000CA
:1031E0000000003FE003FE00003FE03FFFC0003F63
:1031F000E0FFFFF8007FC3FFFFFC007FC7FFFFFF7A
:10320000007FCFFFFFFF807FDFFFFFFFC07FBFF8A2
:103210003FFFE0FFFFC003FFE0FFFF0000FFF0FF04
:10322000FC00007FF8FFF800003FF8FFF000001FEF
:10323000FCFFE000001FFCFFE000000FFCFFC000EF
:10324000000FFEFFC0000007FEFF80000007FEFF2A
:1032500080000007FEFF80000003FEFF80000003E7
:10326000FEFF80000003FEFF80000003FEFF8000E1
:103270000003FEFF80000003FEFF80000003FE7FCE
:10328000C0000003FE7FC0000007FE7FC0000007F3
:10329000FE7FC0000007FE3FE0000007FC3FE000AB
:1032A000000FFC3FF000000FFC1FF000001FF81F94
:1032B000F800001FF80FFC00003FF00FFE00007F39
:1032C000F007FF0000FFE003FFC003FFC001FFF8AD
:1032D0000FFF8000FFFFFFFF00007FFFFFFE0000E9
:1032E0003FFFFFFC00001FFFFFF8000007FFFFE0AB
:1032F000000001FFFF800000003FFC000000000014
:1033000000000000000000000000000000000000BD
:1033100000000000000000000000000000000000AD
:10332000000000000000000000000000000000009D
:10333000000000000000000000000000000000008D
:10334000000000000000000000000000000000007D
:10335000000000000000000000000000000000006D
:10336000000000000000000000000000000000005D
:10337000000000000000000000000000000000004D
:10338000000000000000000000000000000000003D
:10339000000000000000000000000000000000002D
:1033A000000000000000000000000000000000001D
:1033B000000000000000000000000000000000000D
:1033C00000000000000000000000000000000000FD
:1033D00000000000000000000000000000000000ED
:1033E00000000000000000000000000000000000DD
:1033F00000000000000000000000000000000000CD
:1034000000000000000000000000000000000000BC
:1034100000FFFFFFFFFFF0FFFFFFFFFFF0FFFFFFD9
:10342000FFFFF0FFFFFFFFFFF0FFFFFFFFFFF0FFD9
:10343000FFFFFFFFF0FFFFFFFFFFF0FFFFFFFFFFBA
:10344000F0000000003FE0000000003FE00000004E
:10345000007FC0000000007FC000000000FF80006F
:10346000000000FF8000000001FF0000000001FFDD
:103470000000000003FE0000000003FE000000004A
:1034800007FC0000000007FC000000000FF800002F
:1034900000000FF8000000001FF0000000001FF007
:1034A000000000003FE0000000003FE000000000DE
:1034B0007FC0000000007FC000000000FFC00000CF
:1034C0000000FF8000000001FF8000000001FF00FD
:1034D00000000003FF0000000003FE0000000007E2
:1034E000FE0000000007FC000000000FFC000000D0
:1034F000000FF8000000001FF8000000001FF0009F
:103500000000003FF0000000003FE0000000003F2E
:10351000E0000000007FC0000000007FC00000004D
:1035200000FF8000000000FF8000000001FF00009D
:10353000000001FF0000000003FE0000000003FE89
:103540000000000007FE0000000007FC0000000073
:103550000FFC000000000FF8000000001FF8000042
:1035600000001FF0000000003FF0000000003FE0FE
:10357000000000007FE0000000007FC000000000AD
:10358000FFC000000000FF8000000001FF8000007D
:103590000001FF0000000003FF0000000003FE0028
:1035A00000000007FE0000000007FC000000000F04
:1035B000FC0000000000000000000000000000000F
:1035C00000000000000000000000000000000000FB
:1035D00000000000000000000000000000000000EB
:1035E00000000000000000000000000000000000DB
:1035F00000000000000000000000000000000000CB
:1036000000000000000000000000000000000000BA
:1036100000000000000000000000000000000000AA
:10362000000000000000000000000000000000009A
:10363000000000000000000000000000000000008A
:10364000000000000000000000000000000000007A
:10365000000000000000000000000000000000006A
:10366000000000000000000000000000000000005A
:10367000000000000000000000000000000000004A
:10368000000000000000000000000000000000003A
:10369000000000000000000000000000000000002A
:1036A000000000000000000000000000000000001A
:1036B000000000000000000000000000000000000A
:1036C00000000000000000000000000FF0000000FB
:1036D00000FFFF00000007FFFFE000001FFFFFF8F2
:1036E00000003FFFFFFC00007FFFFFFE0001FFFF27
:1036F000FFFF0001FFF00FFF8003FF8003FFC00703
:10370000FF0000FFE00FFC00007FE00FFC00007FE7
:10371000E00FF800003FF01FF000003FF01FF00046
:10372000001FF01FF000001FF01FF000001FF01F2F
:10373000F000001FF01FF000001FF01FF000001F3E
:10374000F01FF000001FF01FF000001FF01FF0003E
:10375000001FF01FF800003FE01FF800003FE00FDF
:10376000FC00007FC00FFE0000FFC007FF8001FFCC
:103770008003FFC003FF0001FFF00FFE0000FFFE0B
:103780003FFC00007FFFFFF800003FFFFFE000006C
:103790000FFFFF80000003FFFFC000000FFFFFF0DE
:1037A00000003FFFFFFC00007FFFFFFF0001FFF074
:1037B0007FFF8003FFC01FFFC007FF0007FFE00F70
:1037C000FC0001FFF01FF80000FFF01FF000007F79
:1037D000F83FF000003FF83FE000001FFC7FE000F2
:1037E000000FFC7FC000000FFC7FC0000007FEFF41
:1037F000C0000007FEFFC0000007FEFFC00000077A
:10380000FEFFC0000007FEFFC0000007FEFFC00073
:103810000007FEFFC0000007FEFFC0000007FCFF1E
:10382000C0000007FC7FE000000FFC7FF000000FED
:10383000FC7FF000001FF83FF800003FF81FFC007D
:10384000007FF01FFF0001FFE00FFFC007FFC00770
:10385000FFFFFFFF8003FFFFFFFF0001FFFFFFFEF1
:1038600000007FFFFFFC00001FFFFFF0000007FFCC
:10387000FF80000000FFFC000000000000000000CE
:103880000000000000000000000000000000000038
:103890000000000000000000000000000000000028
:1038A0000000000000000000000000000000000018
:1038B0000000000000000000000000000000000008
:1038C00000000000000000000000000000000000F8
:1038D00000000000000000000000000000000000E8
:1038E00000000000000000000000000000000000D8
:1038F00000000000000000000000000000000000C8
:1039000000000000000000000000000000000000B7
:1039100000000000000000000000000000000000A7
:103920000000000000000000000000000000000097
:103930000000000000000000000000000000000087
:103940000000000000000000000000000000000077
:103950000000000000000000000000000000000067
:103960000000000000000000000000000000000057
:103970000000000000000000000000000000000047
:1039800000000000000000000007F000000000FF41
:10399000FF00000003FFFFC000000FFFFFF000006A
:1039A0003FFFFFF800007FFFFFFC0000FFFFFFFE6E
:1039B0000001FFFC7FFF0003FFC007FF8007FF003F
:1039C00001FFC007FE0000FFE00FFC00007FE01FCA
:1039D000F800003FF01FF800003FF03FF000001F2C
:1039E000F83FE000001FF83FE000000FF87FE00024
:1039F000000FFC7FC000000FFC7FC0000007FC7FB1
:103A0000C0000007FCFFC0000007FEFFC000000769
:103A1000FEFFC0000007FEFFC0000007FEFFC00061
:103A20000003FEFFC0000003FEFFC0000003FE7F96
:103A3000C0000003FE7FC0000003FE7FE00000071F
:103A4000FE7FE0000007FE7FF000000FFE3FF00069
:103A5000000FFE3FF800001FFE1FFC00003FFE1F8E
:103A6000FE00007FFE0FFF0001FFFE07FFE00FFFDB
:103A7000FE07FFFFFFFBFC03FFFFFFF7FC01FFFF5B
:103A8000FFE7FC007FFFFF87FC003FFFFF07FC0014
:103A90000FFFFC0FF80001FFE00FF8000000000F1F
:103AA000F8000000001FF0000000001FF000000000
:103AB000003FF0000000003FE0000000007FE00059
:103AC0000000007FC000000000FFC000000001FFF8
:103AD0008000000003FF8000000007FF00000000DE
:103AE0000FFE000000001FFE000000003FFC000071
:103AF0000000FFF800000003FFF00000000FFFE0EF
:103B00000000007FFFC00003FFFFFF800003FFFFF6
:103B1000FE000003FFFFFC000003FFFFF0000003B6
:103B2000FFFFC0000003FFFF00000003FFF00000E4
:103B30000003FE0000000000000000000000000084
:103B40000000000000000000000000000000000075
:103B50000000000000000000000000000000000065
:103B60000000000000000000000000000000000055
:103B70000000000000000000000000000000000045
:103B80000000000000000000000000000000000035
:103B90000000000000000000000000000000000025
:103BA0000000000000000000000000000000000015
:103BB0000000000000000000000000000000000005
:103BC00000000000000000000000000000000000F5
:103BD00000000000000000000000000000000000E5
:103BE00000000000000000000000000000000000D5
:103BF00000000000000000000000000000000000C5
:103C000000000000000000000000000000000000B4
:103C100000000000000000000000000000000000A4
:103C20000000000F803FC07FE0FFF0FFF0FFF0FFDB
:103C3000F0FFF0FFF0FFF07FE07FE01F800000006A
:103C40000000000000000000000000000000000074
:103C50000000000000000000000000000000000064
:103C60000000000000000000000000000000001F35
:103C7000803FC07FE0FFF0FFF0FFF0FFF0FFF0FFBC
:103C8000F0FFF07FE03FC01F800000000000000058
:103C90000000000000000000000000000000000024
:103CA0000000000000000000000000000000000014
:103CB0000000000000000000000000000000000004
:103CC00000000000000000000000000000000000F4
:103CD00000000000000000000000000000000000E4
:103CE00000000000000000000000000000000000D4
:103CF00000000000000000000000000000000000C4
:103D0000000000FFE0FFE0FFE0FFE0FFE0FFE0FF7A
:103D1000E0FFE0FFE0FFE0FFE00000000000000047
:103D20000000000000000000000000000000000093
:103D30000000000000000000000000000000000083
:103D40000000000000000000000000000000000073
:103D50000000000000000000000000FFE0FFE0FFA6
:103D6000E0FFE0FFE0FFE0FFE0FFE0FFE0FFE0FF5B
:103D7000E003E003E003E003E003E007C007C00F57
:103D8000C00FC03F80FF00FF00FE00FC00E000000D
:103D90000000000000000000000000000000000023
:103DA0000000000000000000000000000000000013
:103DB0000000000000000000000000000000000003
:103DC00000000000000000000000000000000000F3
:103DD00000000000000000000000000000000000E3
:103DE00000000000000000000000000000000000D3
:103DF00000000000000000000000000000000000C3
:103E000000000000000000000000000000000000B2
:103E100000000000000000000000000000000000A2
:103E20000000000000000000000000000000000092
:103E30000000000000000000000000000000000082
:103E40000000000000000000000000000000000072
:103E50000000000000000000000000000000000062
:103E60000000000000000000000000000000000052
:103E70000000000000000000000000000000000042
:103E80000000000000000000000000000000000032
:103E90000000000040000000000001C00000000021
:103EA0000007C000000000001FC000000000007FED
:103EB000C00000000001FFC00000000007FFC000BC
:103EC0000000001FFFC0000000007FFF0000000096
:103ED00001FFFC0000000007FFF0000000001FFFD2
:103EE000C0000000003FFF0000000000FFFC0000D9
:103EF000000003FFF0000000000FFFC00000000002
:103F00003FFF0000000000FFFC0000000003FFF086
:103F1000000000000FFFC0000000003FFF00000095
:103F20000000FFFC0000000003FFF0000000000F95
:103F3000FFC0000000003FFF0000000000FFFC0089
:103F400000000000FFF00000000000FFC0000000C3
:103F50000000FF000000000000FFC00000000000A3
:103F6000FFF00000000000FFFC00000000003FFF29
:103F700000000000000FFFC00000000003FFF00081
:103F800000000000FFFC00000000003FFF000000F8
:103F900000000FFFC00000000003FFF00000000061
:103FA00000FFFC00000000003FFF00000000000FC9
:103FB000FF800000000003FFE00000000001FFF8A8
:103FC00000000000007FFE00000000001FFF8000D6
:103FD00000000007FFE00000000001FFF800000003
:103FE00000007FFE00000000001FFF8000000000B6
:103FF00007FFC00000000001FFC000000000007FBC
:10400000C000000000001FC0000000000007C0004A
:104010000000000001C0000000000000400000009F
:104020000000000000000000000000000000000090
:104030000000000000000000000000000000000080
:104040000000000000000000000000000000000070
:104050000000000000000000000000000000000060
:104060000000000000000000000000000000000050
:104070000000000000000000000000000000000040
:104080000000000000000000000000000000000030
:104090000000000000000000000000000000000020
:1040A0000000000000000000000000000000000010
:1040B0000000000000000000000000000000000000
:1040C00000000000000000000000000000000000F0
:1040D00000000000000000000000000000000000E0
:1040E00000000000000000000000000000000000D0
:1040F00000000000000000000000000000000000C0
:1041000000000000000000000000000000000000AF
:10411000000000000000000000000000000000009F
:10412000000000000000000000000000000000008F
:10413000000000000000000000000000000000007F
:10414000000000000000000000000000000000006F
:10415000000000000000000000000000000000005F
:10416000000000000000000000000000000000004F
:10417000000000000000000000000000000000003F
:10418000000000000000000000000000000000002F
:10419000000000000000000000000000000000001F
:1041A000000000000000000000000000000000000F
:1041B00000000000000000000000000000000000FF
:1041C00000000000000000000000000000000000EF
:1041D00000000000000000000000000000000000DF
:1041E00000000000000000000000000000000000CF
:1041F00000000000000000000000000000000000BF
:1042000000000000000000000000000000000000AE
:10421000000000000000000000000000000000009E
:1042200000000000000000000000FFFFFFFFFFFF94
:10423000FFFFFFFFFFFFFFFFFFFFFFFFFFFFFFFF8E
:10424000FFFFFFFFFFFFFFFFFFFFFFFFFFFFFFFF7E
:10425000FFFFFFFF00000000000000000000000062
:10426000000000000000000000000000000000004E
:10427000000000000000000000000000000000003E
:10428000000000000000000000000000000000002E
:10429000000000000000000000000000000000001E
:1042A000000000000000000000000000000000000E
:1042B000000000000000FFFFFFFFFFFFFFFFFFFF08
:1042C000FFFFFFFFFFFFFFFFFFFFFFFFFFFFFFFFFE
:1042D000FFFFFFFFFFFFFFFFFFFFFFFFFFFFFFFFEE
:1042E000FFFFFFFFFFFFFF000000000000000000D5
:1042F00000000000000000000000000000000000BE
:1043000000000000000000000000000000000000AD
:10431000000000000000000000000000000000009D
:10432000000000000000000000000000000000008D
:10433000000000000000000000000000000000007D
:10434000000000000000000000000000000000006D
:10435000000000000000000000000000000000005D
:10436000000000000000000000000000000000004D
:10437000000000000000000000000000000000003D
:10438000000000000000000000000000000000002D
:10439000000000000000000000000000000000001D
:1043A000000000000000000000000000000000000D
:1043B00000000000000000000000000000000000FD
:1043C00000000000000000000000000000000000ED
:1043D00000000000000000000000000000000000DD
:1043E00000000000000000000000000000000000CD
:1043F00000000000000000000000000000000000BD
:1044000000000000000000000000000000000000AC
:10441000000000000000000000000000000000009C
:10442000000000000000000000000000000000008C
:10443000000000000000000000000000000000007C
:10444000000000000000000000000000000000006C
:10445000000000000000000000000000000000005C
:10446000000000000000000000000000000000004C
:10447000000000000000000000000000000000003C
:10448000000000000000000000000000000000002C
:10449000000000000000000000000000000000001C
:1044A000000000000000000000000000000000000C
:1044B00000000000000000000000000000000000FC
:1044C00000000000000000000000000000000000EC
:1044D00000000000000000000000000000000000DC
:1044E00000000000000000000000000000000000CC
:1044F0000000000080000000000000E0000000005C
:104500000000F8000000000000FE000000000000B5
:10451000FF800000000000FFE00000000000FFF846
:104520000000000000FFFE00000000003FFF8000D0
:104530000000000FFFE00000000003FFF00000009B
:104540000000FFFC00000000003FFF000000000032
:104550000FFFC00000000003FFF00000000000FF9C
:10456000FC00000000003FFF00000000000FFFC043
:104570000000000003FFF00000000000FFFC00004E
:104580000000003FFF00000000000FFFC00000001F
:104590000003FFF00000000000FFFC00000000002E
:1045A0003FFF00000000000FFFC00000000003FFFD
:1045B000C00000000000FFC000000000003FC0007D
:1045C00000000000FFC00000000003FFC00000006A
:1045D000000FFFC0000000003FFF0000000000FFD0
:1045E000FC0000000003FFF0000000000FFFC0000F
:1045F0000000003FFF0000000000FFFC0000000082
:1046000003FFF0000000000FFFC0000000003FFFAC
:104610000000000000FFFC0000000003FFF00000AD
:1046200000000FFFC0000000003FFF00000000007E
:10463000FFFC0000000003FFF8000000000FFFE097
:10464000000000003FFF8000000000FFFE000000AF
:104650000000FFF80000000000FFE0000000000084
:10466000FF800000000000FE000000000000F800D5
:104670000000000000E000000000000080000000DA
:10468000000000000000000000000000000000002A
:10469000000000000000000000000000000000001A
:1046A000000000000000000000000000000000000A
:1046B00000000000000000000000000000000000FA
:1046C00000000000000000000000000000000000EA
:1046D00000000000000000000000000000000000DA
:1046E00000000000000000000000000000000000CA
:1046F00000000000000000000000000000000000BA
:1047000000000000000000000000000000000000A9
:104710000000000000000000000000000000000099
:104720000000000000000000000000000000000089
:104730000000000000000000000000000000000079
:104740000000000000000000000000000000000069
:104750000000000000000000000000000000000059
:104760000000000000000000000000000000000049
:104770000000000000000000000000000000000039
:104780000000000000000000000000000000000029
:10479000000000000001FFFC00000FFFFF00003FD1
:1047A000FFFFC000FFFFFFE000FFFFFFF000FFFF83
:1047B000FFF800FFFFFFFC007FE3FFFE007C001F0F
:1047C000FE0030000FFF00000007FF00000003FFA5
:1047D00000000003FF00000001FF80000001FF80D7
:1047E000000001FF80000001FF80000001FF0000C9
:1047F0000001FF00000001FF00000003FF000000B7
:1048000003FE00000007FE00000007FE0000000F8E
:10481000FC0000000FF80000001FF80000003FF04F
:104820000000003FF00000007FE0000000FFC0003B
:104830000001FF80000001FF80000003FF00000076
:1048400007FE0000000FFC0000000FF80000001F32
:10485000F80000001FF00000003FF00000003FE003
:104860000000003FE00000007FC00000007FC000AB
:1048700000007FC00000007FC00000007F800000BB
:10488000007F800000007F800000007F800000002B
:104890007F800000007F800000000000000000001A
:1048A0000000000000000000000000000000000008
:1048B00000000000000000000000000000000000F8
:1048C000000000000000003F000000007FC000006A
:1048D00000FFC0000001FFE0000001FFE000000158
:1048E000FFE0000001FFE0000001FFE0000001FF29
:1048F000E0000001FFE0000000FFC00000007FC0FA
:104900000000003F00000000000000000000000068
:104910000000000000000000000000000000000097
:104920000000000000000000000000000000000087
:104930000000000000000000000000000000000077
:104940000000000000000000000000000000000067
:104950000000000000000000000000000000000057
:104960000000000000000000000000000000000047
:104970000000000000000000000000000000000037
:104980000000000000000000000000000000000027
:104990000000000000000000000000000000000017
:1049A0000000000000000000000000000000000007
:1049B00000000000000000000000000000000000F7
:1049C00000000000000000000000000000000000E7
:1049D00000000000000000000000000000000000D7
:1049E00000000000000000000000000000000000C7
:1049F00000000000000000000000000000000000B7
:104A000000000000000000000000000000000000A6
:104A10000000000000000000000000000000000096
:104A20000000000000000000000000000000000086
:104A30000000000000000000000000000000000076
:104A40000000000000000000000000000000000066
:104A50000000000000000000000000000000000056
:104A60000000000000000000000000000000000046
:104A70000000000000000000000000000000000333
:104A8000FFFE0000000000003FFFFFC0000000002C
:104A900001FFFFFFF80000000007FFFFFFFE00001E
:104AA00000001FFFFFFFFF000000003FFC0003FFAE
:104AB000C0000000FFE000007FE0000001FF0000F8
:104AC000001FF0000003FC00000007F8000007F8DA
:104AD00000000003FC00000FE000000001FE0000E9
:104AE0001FC000000000FF00003F80000000007FAA
:104AF00080007F00000000003F8000FE00000000FA
:104B0000001FC001FC00000000000FC001F8000001
:104B10000000000FE003F0000007FC0007E007F0D2
:104B200000007FFFC007F007E00003FFFFF803F07D
:104B30000FC0000FFFFFF003F00FC0001FFFFFF0DA
:104B400003F81F80007FFFFFF001F81F8000FFE0E7
:104B500007F001F83F8001FF8007F001F83F0003F4
:104B6000FE0007E001F83F0007FC0007E001FC7EC3
:104B70000007F80007E000FC7E000FF0000FE000E7
:104B8000FC7E001FE0000FE000FC7E001FC0000F55
:104B9000E000FCFC003FC0000FC000FCFC003F80B8
:104BA000000FC000FCFC007F80001FC000FCFC0068
:104BB0007F00001FC000FCFC007F00001FC001F848
:104BC000FC00FF00001F8001F8FC00FE00001F80B9
:104BD00001F8FC00FE00003F8001F8FC00FE000030
:104BE0003F8001F8FC00FE00003F8003F0FC00FE67
:104BF00000007F8003F0FC00FE00007F0003F0FC5B
:104C000000FE0000FF0007E0FC00FE0001FF0007BF
:104C1000E0FC00FE0003FF000FC0FC00FF0007FFE8
:104C2000001FC0FC00FF000FDF801F80FE007F80A0
:104C30001F9F803F807E007FC07F1F80FF007E001F
:104C40003FFFFF1FE1FE007E003FFFFE0FFFFC0065
:104C50007F001FFFF80FFFF8003F000FFFF007FF76
:104C6000E0003F8003FFC003FFC0003F8000FF0063
:104C700000FE00001FC0000000000000001FC00078
:104C80000000000000000FE000000000000000072E
:104C9000F00000000000000007F800000000000025
:104CA0000003FC0000000000000001FE0000000006
:104CB00000000000FF0000000000000000FF800076
:104CC0000000000000007FE0000000000000001F66
:104CD000F8000001C00000000FFE00000FC000003F
:104CE0000007FFE000FFE000000001FFFFFFFFE022
:104CF00000000000FFFFFFFFC0000000003FFFFFBB
:104D0000FF000000000007FFFFF8000000000000A7
:104D10007FFF800000000000000000000000000095
:104D20000000000000000000000000000000000083
:104D30000000000000000000000000000000000073
:104D40000000000000000000000000000000000063
:104D50000000000000000000000000000000000053
:104D60000000000000000000000000000000000043
:104D70000000000000000000000000000000000033
:104D80000000000000000000000000000000000023
:104D90000000000000000000000000000000000013
:104DA0000000000000000000000000000000000003
:104DB00000000000000000000000000000000000F3
:104DC00000000000000000000000000000000000E3
:104DD00000000000000000000000000000000000D3
:104DE00000000000000000000000000000000000C3
:104DF00000000000000000000000000000000000B3
:104E000000000000000000000000000000000000A2
:104E10000000000000000000000000000000000092
:104E20000000000000000000000000000000000082
:104E3000000000000000000000FFF0000000000083
:104E400000FFF0000000000001FFF0000000000083
:104E500001FFF8000000000001FFF8000000000062
:104E600003FFF8000000000003FFFC00000000004A
:104E700003FFFC000000000007FBFC000000000036
:104E800007FBFE000000000007FBFE000000000022
:104E90000FF3FE00000000000FF1FF000000000013
:104EA0000FF1FF00000000001FF1FF0000000000F4
:104EB0001FE0FF80000000001FE0FF8000000000F6
:104EC0003FE0FF80000000003FE0FFC00000000066
:104ED0003FC07FC0000000007FC07FC00000000016
:104EE0007FC07FE000000000FF803FE00000000086
:104EF000FF803FE000000000FF803FF00000000165
:104F0000FF001FF000000001FF001FF00000000183
:104F1000FF001FF800000003FE000FF80000000370
:104F2000FE000FFC00000003FE000FFC0000000765
:104F3000FC0007FC00000007FC0007FE0000000763
:104F4000FC0007FE0000000FF80003FE0000000F49
:104F5000F80003FF0000000FF80001FF0000001F31
:104F6000F00001FF0000001FF00001FF8000001FA3
:104F7000F00000FF8000003FE00000FF8000003FE5
:104F8000E00000FFC000003FFFFFFFFFC000007F08
:104F9000FFFFFFFFC000007FFFFFFFFFE000007F7B
:104FA000FFFFFFFFE00000FFFFFFFFFFE00000FF4B
:104FB000FFFFFFFFF00000FFFFFFFFFFF00001FF1A
:104FC0008000003FF00001FF0000001FF80001FF1B
:104FD0000000001FF80003FF0000001FF80003FEA0
:104FE0000000000FFC0003FE0000000FFC0007FEA5
:104FF0000000000FFC0007FC00000007FE0007FC9B
:1050000000000007FE000FFC00000007FE000FF884
:1050100000000003FF000FF800000003FF001FF86E
:1050200000000003FF001FF000000001FF801FF0E0
:1050300000000001FF803FF000000000FF803FE023
:1050400000000000FFC03FE000000000FFC07FE064
:10505000000000007FC07FC0000000007FE07FC034
:10506000000000007FE0FFC0000000003FF0FF8074
:10507000000000003FF00000000000000000000001
:105080000000000000000000000000000000000020
:105090000000000000000000000000000000000010
:1050A0000000000000000000000000000000000000
:1050B00000000000000000000000000000000000F0
:1050C00000000000000000000000000000000000E0
:1050D00000000000000000000000000000000000D0
:1050E00000000000000000000000000000000000C0
:1050F00000000000000000000000000000000000B0
:10510000000000000000000000000000000000009F
:10511000000000000000000000000000000000008F
:10512000000000000000000000000000000000007F
:10513000000000000000000000000000000000006F
:10514000000000000000000000000000000000005F
:10515000000000000000000000000000000000004F
:10516000000000000000000000000000000000003F
:10517000000000000000000000000000000000002F
:10518000000000000000000000000000000000001F
:10519000000000000000000000000000000000000F
:1051A00000000000000000000000000000000000FF
:1051B00000000000001FFC0000003FFFFFF00000A7
:1051C000FFFFFFFE0000FFFFFFFFC000FFFFFFFF2C
:1051D000E000FFFFFFFFF800FFFFFFFFFC00FFFF05
:1051E000FFFFFE00FF80007FFF00FF80000FFF80B9
:1051F000FF800003FF80FF800001FFC0FF800000F0
:10520000FFC0FF800000FFC0FF8000007FE0FF8044
:1052100000007FE0FF8000007FE0FF8000007FE073
:10522000FF8000007FE0FF8000007FE0FF80000043
:105230007FE0FF8000007FE0FF8000007FC0FF80F4
:1052400000007FC0FF800000FFC0FF800000FF80E3
:10525000FF800001FF80FF800003FF00FF80000748
:10526000FE00FF80001FFC00FF80007FF800FFFFB2
:10527000FFFFF000FFFFFFFFC000FFFFFFFF000088
:10528000FFFFFFFE0000FFFFFFFFC000FFFFFFFF6B
:10529000F000FFFFFFFFFC00FF800FFFFE00FF801C
:1052A000007FFF00FF80000FFF80FF800003FFC032
:1052B000FF800001FFE0FF800000FFE0FF800000B2
:1052C0007FF0FF8000003FF0FF8000001FF8FF80AC
:1052D00000001FF8FF8000001FF8FF8000000FF89B
:1052E000FF8000000FFCFF8000000FFCFF8000002B
:1052F0000FFCFF8000000FFCFF8000000FFCFF8010
:1053000000001FF8FF8000001FF8FF8000001FF85A
:10531000FF8000003FF8FF8000003FF0FF800000AA
:105320007FF0FF800000FFF0FF800001FFE0FF80C2
:105330000003FFC0FF80000FFFC0FF80007FFF80E1
:10534000FFFFFFFFFF00FFFFFFFFFE00FFFFFFFF6C
:10535000F800FFFFFFFFF000FFFFFFFFC000FFFFAF
:10536000FFFE0000FFFFFFE0000000FFE000000084
:10537000000000000000000000000000000000002D
:10538000000000000000000000000000000000001D
:10539000000000000000000000000000000000000D
:1053A00000000000000000000000000000000000FD
:1053B00000000000000000000000000000000000ED
:1053C00000000000000000000000000000000000DD
:1053D00000000000000000000000000000000000CD
:1053E00000000000000000000000000000000000BD
:1053F00000000000000000000000000000000000AD
:10540000000000000000000000000000000000009C
:10541000000000000000000000000000000000008C
:10542000000000000000000000000000000000007C
:10543000000000000000000000000000000000006C
:10544000000000000000000000000000000000005C
:10545000000000000000000000000000000000004C
:10546000000000000000000000000000000000003C
:10547000000000000000000000000000000000002C
:1054800000000000000007FFFC000000007FFFFF9D
:10549000E0000003FFFFFFFC00000FFFFFFFFC0028
:1054A000003FFFFFFFFC0000FFFFFFFFFC0001FFCC
:1054B000FFFFFFFC0007FFFFFFFFF8000FFFFC00EE
:1054C00003F8001FFFC0000038003FFF000000008D
:1054D000007FFC0000000000FFF80000000001FF5A
:1054E000E00000000001FFC00000000003FF80009A
:1054F00000000007FF000000000007FF00000000A0
:10550000000FFE00000000000FFC00000000001F64
:10551000FC00000000001FF800000000003FF80041
:10552000000000003FF000000000003FF00000001D
:1055300000007FE000000000007FE00000000000AD
:105540007FE000000000007FE000000000007FC05E
:105550000000000000FFC00000000000FFC00000CD
:10556000000000FFC00000000000FFC000000000BD
:1055700000FFC00000000000FFC00000000000FFAE
:10558000C00000000000FFC00000000000FFC000DD
:1055900000000000FFC00000000000FFC00000008D
:1055A0000000FFC00000000000FFC000000000007D
:1055B000FFC00000000000FFC00000000000FFC0AE
:1055C00000000000007FE000000000007FE000001D
:1055D0000000007FE000000000007FF000000000FD
:1055E000003FF000000000003FF000000000003F1E
:1055F000F800000000001FF800000000001FFC0081
:10560000000000001FFE00000000000FFE00000070
:1056100000000FFF000000000007FF8000000000F6
:1056200003FFC00000000003FFE00000000001FFD6
:10563000F80000000000FFFC00000000007FFF00F9
:10564000000008003FFFE0000078001FFFFC00079B
:10565000F8000FFFFFFFFFF80007FFFFFFFFFC0050
:1056600001FFFFFFFFFC0000FFFFFFFFFC00003F0A
:10567000FFFFFFFC000007FFFFFFF8000000FFFF37
:10568000FFC00000000FFFF8000000000000000055
:10569000000000000000000000000000000000000A
:1056A00000000000000000000000000000000000FA
:1056B00000000000000000000000000000000000EA
:1056C00000000000000000000000000000000000DA
:1056D00000000000000000000000000000000000CA
:1056E00000000000000000000000000000000000BA
:1056F00000000000000000000000000000000000AA
:105700000000000000000000000000000000000099
:105710000000000000000000000000000000000089
:105720000000000000000000000000000000000079
:105730000000000000000000000000000000000069
:105740000000000000000000000000000000000059
:105750000000000000000000000000000000000049
:105760000000000000000000000000000000000039
:105770000000000000000000000000000000000029
:105780000000000000000000000000000000000019
:105790000000000000000000000000000000000009
:1057A00000000000000000000000000000000000F9
:1057B00000000000000000000000000000000000E9
:1057C000000000000000000007FF80000000003F14
:1057D000FFFFFF80000000FFFFFFFFF8000000FF59
:1057E000FFFFFFFF000000FFFFFFFFFFC00000FF03
:1057F000FFFFFFFFF00000FFFFFFFFFFFC0000FFC7
:10580000FFFFFFFFFE0000FFC00007FFFF0000FFDB
:105810008000007FFF8000FF8000001FFFC000FFAE
:1058200080000007FFE000FF80000001FFF000FFA4
:1058300080000000FFF800FF800000003FFC00FF38
:10584000800000001FFC00FF800000000FFE00FF32
:10585000800000000FFE00FF8000000007FF00FF37
:105860008000000003FF00FF8000000003FF80FFB6
:105870008000000001FF80FF8000000001FFC0FFEA
:105880008000000000FFC0FF8000000000FFC0FF9C
:105890008000000000FFC0FF80000000007FE0FFEC
:1058A00080000000007FE0FF80000000007FE0FF3C
:1058B00080000000007FE0FF80000000007FE0FF2C
:1058C00080000000007FE0FF80000000007FE0FF1C
:1058D00080000000003FE0FF80000000003FE0FF8C
:1058E00080000000003FE0FF80000000003FE0FF7C
:1058F00080000000003FE0FF80000000003FE0FF6C
:1059000080000000007FE0FF80000000007FE0FFDB
:1059100080000000007FE0FF80000000007FE0FFCB
:1059200080000000007FE0FF80000000007FE0FFBB
:1059300080000000007FC0FF8000000000FFC0FF6B
:105940008000000000FFC0FF8000000000FFC0FFDB
:105950008000000001FF80FF8000000001FF80FF49
:105960008000000003FF80FF8000000003FF00FFB5
:105970008000000007FF00FF8000000007FE00FF1E
:10598000800000000FFE00FF800000001FFC00FFF1
:10599000800000003FFC00FF800000007FF800FF57
:1059A00080000000FFF000FF80000001FFF000FF1A
:1059B00080000003FFE000FF8000000FFFC000FF39
:1059C0008000003FFF8000FF800001FFFF0000FF1C
:1059D00080001FFFFC0000FFFFFFFFFFF80000FF3B
:1059E000FFFFFFFFF00000FFFFFFFFFFC00000FF11
:1059F000FFFFFFFF000000FFFFFFFFF8000000FFB8
:105A0000FFFFFFC0000000FFFFFFFC0000000000E0
:105A10007FFC00000000000000000000000000000B
:105A20000000000000000000000000000000000076
:105A30000000000000000000000000000000000066
:105A40000000000000000000000000000000000056
:105A50000000000000000000000000000000000046
:105A60000000000000000000000000000000000036
:105A70000000000000000000000000000000000026
:105A80000000000000000000000000000000000016
:105A90000000000000000000000000000000000006
:105AA00000000000000000000000000000000000F6
:105AB00000000000000000000000000000000000E6
:105AC00000000000000000000000000000000000D6
:105AD00000000000000000000000000000000000C6
:105AE00000000000000000000000000000000000B6
:105AF00000000000000000000000000000000000A6
:105B00000000000000000000000000000000000095
:105B10000000000000000000000000000000000085
:105B20000000000000000000000000000000000075
:105B30000000000000000000000000000000000065
:105B40000000000000000000000000000000000055
:105B5000000000FFFFFFFFFE00FFFFFFFFFE00FF52
:105B6000FFFFFFFE00FFFFFFFFFE00FFFFFFFFFE46
:105B700000FFFFFFFFFE00FFFFFFFFFE00FFFFFF34
:105B8000FFFE00FF8000000000FF8000000000FF1B
:105B90008000000000FF8000000000FF8000000087
:105BA00000FF8000000000FF8000000000FF800078
:105BB000000000FF8000000000FF8000000000FFE8
:105BC0008000000000FF8000000000FF8000000057
:105BD00000FF8000000000FF8000000000FF800048
:105BE000000000FF8000000000FF8000000000FFB8
:105BF0008000000000FF8000000000FF8000000027
:105C000000FF8000000000FFFFFFFFF800FFFFFF24
:105C1000FFF800FFFFFFFFF800FFFFFFFFF800FFA6
:105C2000FFFFFFF800FFFFFFFFF800FFFFFFFFF897
:105C300000FFFFFFFFF800FF8000000000FF800072
:105C4000000000FF8000000000FF8000000000FF57
:105C50008000000000FF8000000000FF80000000C6
:105C600000FF8000000000FF8000000000FF8000B7
:105C7000000000FF8000000000FF8000000000FF27
:105C80008000000000FF8000000000FF8000000096
:105C900000FF8000000000FF8000000000FF800087
:105CA000000000FF8000000000FF8000000000FFF7
